:020000040800F2
:10000000888C00244103000889150008711300083A
:10001000D114000809070008011A000800000000B8
:100020000000000000000000000000008103000844
:100030002107000800000000190400082904000836
:100040005B0300085B0300085B0300085B03000818
:100050005B0300085B0300085B0300085B03000808
:100060005B0300085B0300085B0300085B030008F8
:100070005B0300085B0300085B0300085B030008E8
:100080005B0300085B0300085B0300085B030008D8
:100090005B0300085B0300085B0300085B030008C8
:1000A0005B0300085B0300085B0300085B030008B8
:1000B0005B0300085B0300085B0300085B030008A8
:1000C0005B0300085B0300085B0300085B03000898
:1000D0005B030008F91900085B0300085B030008D4
:1000E0005B0300085B030008000000005B030008DE
:1000F0005B0300085B0300085B0300085B03000868
:100100005B0300085B0300085B0300085B03000857
:100110005B0300085B0300085B0300085B03000847
:100120005B0300085B0300085B0300085B03000837
:100130005B0300085B0300085B0300085B03000827
:1001400000000000000000000000000000000000AF
:100150005B0300085B0300085B0300085B03000807
:100160005B0300085B0300085B0300085B030008F7
:100170005B0300085B0300085B030008000000004D
:100180005B0300085B0300085B0300085B030008D7
:100190005B0300085B0300085B0300085B030008C7
:1001A0005B0300085B0300085B0300085B030008B7
:1001B0005B0300085B0300085B0300085B030008A7
:1001C0005B0300085B0300085B0300085B03000897
:1001D0005B0300085B0300085B0300085B03000887
:1001E0005B0300085B0300085B0300085B03000877
:1001F0005B0300085B0300085B0300085B03000867
:100200005B0300085B0300085B0300085B03000856
:100210005B0300085B0300085B0300085B03000846
:100220005B0300085B0300085B030008000000009C
:100230005B0300085B030008000000005B0300088C
:100240005B0300085B0300085B0300085B03000816
:100250005B0300085B0300085B0300085B03000806
:100260005B0300085B0300085B0300085B030008F6
:100270005B0300085B0300085B030008000000004C
:100280005B0300085B0300085B030008000000003C
:10029000000000005B03000800F002F800F03CF8EA
:1002A0000AA090E8000C82448344AAF10107DA45D1
:1002B00001D100F031F8AFF2090EBAE80F0013F0E7
:1002C000010F18BFFB1A43F001031847483900001B
:1002D00068390000103A24BF78C878C1FAD85207AC
:1002E00024BF30C830C144BF04680C6070470000B0
:1002F0000023002400250026103A28BF78C1FBD82F
:10030000520728BF30C148BF0B6070471FB503F0CC
:100310007AFB1FBD10B510BD00F05FF9114603B4A4
:1003200001F0DAFB03BCFFF7F1FF01F041FD00F043
:1003300079F903B4FFF7EEFF03BC00F081F9000088
:100340000948804709480047FEE7FEE7FEE7FEE769
:10035000FEE7FEE7FEE7FEE7FEE7FEE704480549A5
:10036000054A064B7047000039180008990200083A
:1003700088860024888C00248888002488880024AB
:100380001EF0040F0CBFEFF30880EFF309808169C2
:1003900011F8021C91BB01B590E80F10E047BDE8D1
:1003A00000508CE80300244B93E80600914208BFFC
:1003B000704741B91EF0100F10D12049086820F095
:1003C000010008600AE02CE9F00F1EF0100F08BFD2
:1003D0002CED108AC1F838C081F822E01A6092F83A
:1003E0002210906B61F0FF0E1EF0100F08BFB0ECF2
:1003F000108AB0E8F00F80F309887047104A13683C
:100400009942FAD801B552F821C00FC8E047BDE8BB
:100410000050CCF80000704701B502F0BDF8BDE80F
:100420000140EFF3098CBEE701B502F0D5FBBDE852
:100430000140EFF3098CB6E71C00002434EF00E024
:10044000603B0008032A40F2308010F0030C00F0FB
:10045000158011F8013BBCF1020F624498BF11F8FE
:1004600001CB00F8013B38BF11F8013BA2F10402B7
:1004700098BF00F801CB38BF00F8013B11F003032F
:1004800000F07980083AC0F0088051F8043B083A3F
:1004900051F804CBA0E80810F5E7121D5CBF51F835
:1004A000043B40F8043BAFF30080D20724BF11F8AF
:1004B000013B11F801CB48BF11F8012B24BF00F814
:1004C000013B00F801CB48BF00F8012B704702F058
:1004D000FF0343EA032242EA024200F024B84FF04D
:1004E00000020429C0F0128010F0030C00F01B8001
:1004F000CCF1040CBCF1020F18BF00F8012BA8BF0F
:1005000020F8022BA1EB0C0100F00DB85FEAC17CD2
:1005100024BF00F8012B00F8012B48BF00F8012B85
:1005200070474FF0000200B51346944696462039B6
:1005300022BFA0E80C50A0E80C50B1F12001BFF49C
:10054000F7AF090728BFA0E80C5048BF0CC05DF802
:1005500004EB890028BF40F8042B08BF704748BF50
:1005600020F8022B11F0804F18BF00F8012B7047C4
:1005700070477047704710B5203AC0F00B80B1E863
:100580001850A0E81850B1E81850A0E81850203AC8
:10059000BFF4F5AF5FEA027C24BFB1E81850A0E8D1
:1005A000185044BF18C918C0BDE810405FEA827CEB
:1005B00024BF51F8043B40F8043B08BF7047D20702
:1005C00028BF31F8023B48BF11F8012B28BF20F8A3
:1005D000023B48BF00F8012B7047754600F02CF82D
:1005E000AE4605006946534620F00700854618B020
:1005F00020B5FFF7B3FEBDE820404FF000064FF0F6
:1006000000074FF000084FF0000BAC46ACE8C00903
:10061000ACE8C009ACE8C009ACE8C00921F00701AA
:100620008D46704710B50446AFF300802046BDE804
:100630001040FFF77EBE000000487047B80000245D
:1006400001491820ABBEFEE72600020070470000FB
:1006500080B540F2D16043F6F422C0F60000C0F647
:100660000002002102F064FB40F2241143F6D02284
:10067000C2F20041C0F60002086040F2B960C0F664
:100680000000002102F054FB40F2201143F63C32FE
:10069000C2F20041C0F60002086040F20170C0F6EC
:1006A0000000002102F044FB40F22811C2F2004198
:1006B000086080BD0000000001F0E2FB00F1C8040A
:1006C000204601F0ADFBC834FAE70000000000004E
:1006D0000A2001F089FBFBE700F02EFE01F0B4FADE
:1006E000FFF7B6FF01F0CCFB441C00BF00F02CF973
:1006F000204601F095FB0134F8E7000000000000FF
:10070000142001F071FBFBE7FEE700000000000091
:1007100080B500F0D1FF00F09FFF80BD0000000019
:10072000704700000000000070470000000000005B
:10073000704700000000000070470000000000004B
:10074000704700000000000070470000000000003B
:10075000704700000000000070470000000000002B
:10076000704700000000000070470000000000001B
:10077000704700000000000070470000000000000B
:1007800070470000000000007047000000000000FB
:1007900070470000000000007047000000000000EB
:1007A00070470000000000007047000000000000DB
:1007B00070470000000000007047000000000000CB
:1007C00070470000000000007047000000000000BB
:1007D00070470000000000007047000000000000AB
:1007E000704700000000000070470000000000009B
:1007F000704700000000000070470000000000008B
:10080000704700000000000070470000000000007A
:10081000704700000000000070470000000000006A
:10082000704700000000000070470000000000005A
:10083000704700000000000070470000000000004A
:10084000704700000000000070470000000000003A
:10085000704700000000000070470000000000002A
:10086000704700000000000070470000000000001A
:10087000704700000000000070470000000000000A
:1008800070470000000000007047000000000000FA
:1008900070470000000000007047000000000000EA
:1008A00070470000000000007047000000000000DA
:1008B00070470000000000007047000000000000CA
:1008C00070470000000000007047000000000000BA
:1008D00070470000000000007047000000000000AA
:1008E000704700000000000070470000000000009A
:1008F000704700000000000070470000000000008A
:100900007047000000000000704700000000000079
:1009100040F22040C5F60000016841F0010101608D
:10092000704700000000000041F20000C5F60040E2
:100930000068000C7047000048F28460C2F200407A
:10094000006870470000000040F2AC0048F284618B
:10095000C2F20040C2F2004100780A681044086008
:10096000704700000000000080B5032000F0CCF8C4
:1009700000F0F6F944F2184143F6C023C5F602012F
:10098000C0F600030A68C2F30322096801F00F01F0
:100990009A5C595C02F01F02D04040F20402C2F29D
:1009A000004201F01F0120FA01F1116040F2000144
:1009B000C2F200410860002000F00AF800281CBFC5
:1009C000012080BD00F080F8002080BD0000000004
:1009D000B0B540F2AC01C2F20041097801B304465F
:1009E00040F20000C2F200404FF47A72B2FBF1F123
:1009F0000068B0FBF1F000F0ABFC0F2C4FF00105EC
:100A00000CD858B94FF0FF3000222146002500F0E5
:100A10006BF840F2B000C2F2004004602846B0BD5E
:100A20000120B0BD00000000B0B502784EF69C5C1D
:100A3000CEF2000C43784CF8043CF2B14368CCF899
:100A40000030037BC17A90F80AE0457B447A42EAA1
:100A50000372837B42EA0161C27B41EACE41007AA4
:100A600041EA854141EA434141EA024141EA042128
:100A700041EA4000CCF80400B0BD0020CCF80000F2
:100A8000CCF80400B0BD00004EF62450CEF20000B9
:100A9000BFF35F8F016821F480310160002101679D
:100AA00070470000000000004EF6245140F00100A5
:100AB000CEF200010867086840F480300860BFF398
:100AC0004F8FBFF36F8F704781B044F2F440C5F68B
:100AD0000200016841F002010160006800F00200BC
:100AE0000090009801B0704770B514460D46064658
:100AF00000F08AFF2946224600F04AFD01463046B2
:100B000000F092FF70BD000080B500F0A1FF80BD35
:100B10002DE9F04381B0002800F0F28042F2000895
:100B20000446C5F200288946D8F8000000F00F00FE
:100B300088420ED2D8F8000020F00F0040EA0900E9
:100B4000C8F80000D8F8000000F00F00484540F059
:100B5000D780206844F218474107C5F602070AD536
:100B600021693A6802F07002914204D93A6822F091
:100B700070021143396001070AD561697A6802F091
:100B80007002914204D97A6822F0700211437960B0
:100B9000C1060AD5A1697A6802F4E062914204D9DB
:100BA0007A6822F4E0621143796081060AD5E1692E
:100BB000BA6802F07002914204D9BA6822F0700259
:100BC0001143B96081070AD5E1683A6802F00F0263
:100BD000914204D93A6822F00F0211433960C007EC
:100BE0007ED1206881070AD5E1683A6802F00F02D9
:100BF000914204D23A6822F00F0211433960D8F8CA
:100C0000001001F00F0149450DD9D8F8001021F06E
:100C10000F0141EA0901C8F80010D8F8001001F0EE
:100C20000F0149456CD141070AD521693A6802F0A4
:100C30007002914204D23A6822F070021143396086
:100C400001070AD561697A6802F07002914204D204
:100C50007A6822F0700211437960C1060AD5A16951
:100C60007A6802F4E062914204D27A6822F4E06287
:100C70001143796080060AD5E069B96801F0700116
:100C8000884204D2B96821F070010843B86000F0CE
:100C900067F8396843F6C022C0F60002C1F30321A9
:100CA0003B6803F00F03515CD25C01F01F01C840A8
:100CB00002F01F0140F2040220FA01F1C2F20042E8
:100CC000116040F2000140F2B002C2F20041C2F2F3
:100CD000004208601068FFF77BFE01B0BDE8F083BA
:100CE000386820F47061D4E90102032841EA020166
:100CF000396009D0022829D157F8181C890307D474
:100D0000012001B0BDE8F08357F8181C8901F7D520
:100D100057F8081C21F00701084347F8080CFFF7B3
:100D20000BFE064641F2883557F8080C616800F062
:100D30003800B0EBC10F3FF454AFFFF7FDFD801B4F
:100D4000A842F1D9032001B0BDE8F083012857F88B
:100D5000181C02D1C905D3D5DAE74907D0D5D7E7A2
:100D600044F20041C5F602010869C0F3C20003283D
:100D70000FD002282BD078BB0868800649F200000B
:100D8000C0F2D03058BF70470968C1F3C101C840F4
:100D900070478A6A886AC0F3051CCB6A486B03F007
:100DA0000103BCF1000FC0F3CC0003FB00F000EE28
:100DB000100AB8EE400A14D002F00302022A12D040
:100DC000A2B90868800614D49FED251A1EE047F6E4
:100DD0004000C0F27D10704740F60010C0F23D00A8
:100DE0007047002070479FED1D1A0FE09FED1A1A03
:100DF0000CE0086849F20002C0F2D032C0F3C10032
:100E000022FA00F001EE100AB8EE411A02EE10CA02
:100E10009FED144AB8EE422A086B6FF35F2003EE91
:100E2000100A81EE021AB8EE433A086B00EE043A5B
:100E3000B7EE000AC0F34620013033EE000A21EE7F
:100E4000000A01EE100AB8EE411A80EE010ABCEE6B
:100E5000C00A10EE100A70470024744A20BCBE4B32
:100E60000024744C000000392DE9F041002800F006
:100E700048810446007844F20046C007C5F60206E1
:100E80004DD0306900F03801B06A102905D018291A
:100E90000AD100F00300022806D1306880033AD559
:100EA0006068C0BB012727E065686DB1B5F5803F7C
:100EB00006D0B5F5A02F306807D140F4802030600F
:100EC000306840F4803006E0306820F480303060D4
:100ED000306820F480203060FFF72EFD002D05469D
:100EE00016D000BF3068800315D4FFF725FD401BE6
:100EF000B0F5FA7FF6D903270020002800F017820A
:100F00000DE000BFFFF718FD401BB0F5FA7FF2D8E7
:100F100030688003F6D40120002800F00882207891
:100F2000800754D5306910F03801B06A17D01829FD
:100F300008BF5FEA807012D0E068316850B321F0DA
:100F4000190108433060FFF7F7FC05463068400799
:100F50000AD4FFF7F1FC401B0228F7D928E03068DB
:100F6000400701D5E06868B3FFF7DEFC41F20301FA
:100F7000884208D820697168402821F47C3119D151
:100F800041F4003018E07068216920F0FE4040EA2A
:100F9000016011E021F001003060FFF7CDFC054653
:100FA0003068400709D5FFF7C7FC401B0328F7D37B
:100FB000032708E041EA003070600120002800F0BB
:100FC000B68104E001270020002800F0B0812078DD
:100FD000C0065AD5306900F03801B06A082905D03A
:100FE000182918D100F00300012814D13068C00579
:100FF00002D5E069802843D1FFF796FC41F2030156
:1010000088421CD8206A7168202821F0F8412FD12D
:1010100041F080402EE0E0690028306817D040F0B1
:1010200080003060FFF788FC054600BF3068C005CF
:10103000E2D4FFF781FC401B0228F7D916E0F068E4
:10104000216A20F07C5040EA0160F06013E020F05B
:1010500080003060FFF770FC054600BF3068C005B7
:1010600009D5FFF769FC401B0328F7D3032708E0E5
:1010700041EA806070600120002800F0588104E09F
:1010800001270020002800F05281207800073CD47E
:10109000207880064DD4207840075ED4656A65B319
:1010A000306900F03800182840F09E80012DB16AA8
:1010B000306B26D001F00302A36A9A4221D1C1F31A
:1010C0000511E26A91421CD10146226B6FF35F2148
:1010D000013A914215D1C0F34621626B013A914227
:1010E0000FD1C0F30641A26B013A914209D1C0F37E
:1010F0000660E16B0139884203D10027F8B2BDE8F0
:10110000F0810127F8B2BDE8F08160690028706FB6
:1011100039D040F001007067FFF70EFC054600BFB4
:10112000706F8007B4D4FFF707FC401B0228F7D983
:1011300025E0A0690028306844D040F48050306039
:10114000FFF7FAFB054600BF30688004A3D4FFF721
:10115000F3FB401B0228F7D911E0D6F8000440F455
:101160008070C6F80004FFF7E7FB0546D6F80004D8
:10117000C00519D4FFF7E0FB401B6428F6D903270C
:10118000F8B2BDE8F08120F001007067FFF7D4FBF2
:1011900005460327706F80077FF57AAFFFF7CCFB1A
:1011A000401B0228F6D9C2E0A568EDB3012D05D099
:1011B000052D306F39D140F004003067306F40F0BA
:1011C000010038E020F480503060FFF7B5FB0546A1
:1011D000032700BF306880047FF55DAFFFF7ACFBED
:1011E000401B0228F6D9A2E0306820F08070306001
:1011F000FFF7A2FB022D05464FF003070AD100BFFF
:101200003068800135D5FFF797FB401B0228F7D9DE
:101210008DE000BF306880017FF56FAFFFF78CFB7A
:10122000401B0228F6D982E0306F20F001003067C1
:10123000306F20F004003067FFF77EFB002D05467D
:1012400041F288384FF003070FD000BF306F80079E
:101250003FF524AFFFF770FB401B4045F6D966E031
:10126000FFF76AFB401B404561D8306F8007F7D419
:1012700014E704F12807B06A40F2F33188438ECFB7
:101280000843591E40EA02104FF47E42B06202EB5E
:1012900047206FF35F214FF4FE0280B2E36B0844F6
:1012A000A16B02EB01414FF0FE4201F4FE0102EBA3
:1012B0000362084402F0FE4108443063F06A4FF6CE
:1012C000F87120F00100F062706BA26C884340EA74
:1012D000C2007063F06A216C20F00C000843F062D9
:1012E000F06A616C20F002000843F062F06A40F49A
:1012F0008030F062F06A40F40030F062F06A40F44E
:101300008020F062F06A40F00100F062306840F046
:1013100080703060FFF710FB0446032730688001BF
:101320003FF5EBAEFFF708FB001B0228F6D9F8B239
:10133000BDE8F081000000004EF21000CEF2000087
:10134000016841F0020101607047000000000000E8
:1013500080B500F0F1F980BD4EF21000CEF2000031
:10136000016821F0020101607047000000000000E8
:10137000FEE7000000000000EFF3108000281CBF13
:1013800001207047EFF31180002818BF012070473B
:10139000EFF3108000281CBF01207047EFF311808D
:1013A000002818BF01207047EFF3108000281CBFF1
:1013B00001207047EFF31180002818BF012070470B
:1013C000EFF3108000281CBF01207047EFF311805D
:1013D000002818BF01207047EFF3108000281CBFC1
:1013E00001207047EFF31180002818BF01207047DB
:1013F000EFF30580002818BF0120704700000000AF
:10140000EFF30580002818BF01207047000000009E
:10141000EFF30580002818BF01207047000000008E
:10142000EFF30580002818BF01207047000000007E
:10143000EFF30580002818BF01207047000000006E
:101440000121EFF3148021EA000070470000000042
:10145000B0B584B0FFF718FB0120ADF800004FF0E5
:101460001050019012208DF808004FF48070ADF8F4
:10147000090000206C46C0F20110039020460325AD
:101480008DF80B50FFF7D0FA40F20110ADF80000D4
:101490004FF0C04001900F208DF808000020ADF8FB
:1014A00009004FF08070039020468DF80B50FFF735
:1014B000BBFA0420FFF7F8FA04B0B0BD000000004A
:1014C0000844704700000000704700000000000062
:1014D000FEE700000000000010B50446283000F0D0
:1014E00043FB58B1E46A4CB1A01C00F0A1FB18B159
:1014F000A468002CF8D10024204610BD002420460A
:1015000010BD00000000000010B584465CF8303FBC
:101510005BB191F803E0DA7872450BD21A465B684A
:101520006BB1DC787445F9D305E00022C1E90122F2
:10153000C1620DE00022C1E90132083303E0C1E9D4
:10154000013200F12C03002A196018BF02F1040CCB
:101550002830CCF8001000F043FB10BD0000000064
:101560004A6802F10803002A08BF00F12C038A68C8
:101570001A608A68131D002A08BF00F1300348680A
:101580001860704700000000704700000000000075
:1015900000F007004FF0FF3C80F00703042B28BF4A
:1015A0000423033838BF00200CFA03F399430CFAE4
:1015B00000F301FA00F022EA03010843704700003B
:1015C0004EF21000CEF200000068704700000000EC
:1015D00040F21810C2F200400178012908D1002120
:1015E00001704EF604504FF08061CEF200000160B1
:1015F0004EF21000CEF20000016841F001010160DE
:1016000070470000000000004FF0FF3070470000FE
:1016100058B140F20001C2F200410968B1FBF0F09C
:10162000411E0020B0EB116F02D04FF0FF30704729
:101630004EF62352FF23CEF2000213704EF2100238
:10164000CEF2000206231360516040F21811C2F27C
:10165000004190600870704770B54EF6145000213C
:10166000CEF2000043F6E07C0167BFF34F8FC26EFD
:10167000C2F34E31C2F3C90202F1010E930700BF5B
:101680000CEA41121C46754644EA0206013D04F18B
:101690004044C0F84C62F7D10029A1F10101EFD11B
:1016A000BFF34F8F016841F480310160BFF34F8F6A
:1016B000BFF36F8F70BD00004EF614500021CEF2C4
:1016C0000000BFF34F8FBFF36F8FC0F83C12BFF322
:1016D0004F8FBFF36F8F016841F400310160BFF39A
:1016E0004F8FBFF36F8F7047B0B54EF62254FF2077
:1016F000CEF200042070207880F0FF00B0FA80F075
:10170000C0F1200500F088F9A84228BF451CFE2042
:10171000A84004F8030CB0BD4EF604504FF08051C1
:10172000CEF2000001607047C0064FF0200058BFA5
:101730006020704700000000B0B501380024B4EB11
:10174000106F01D00120B0BD4EF210050F21CEF276
:10175000000568604FF0FF3000F066F9AC600720CC
:1017600028602046B0BD0000B0B59CB044F618001B
:10177000C5F6020050F80C1C21F0040140F80C1CC6
:101780000021019140F22C41C5F600010A6822F0C7
:1017900001020A60096801F001010191016841F448
:1017A00040410160016801F440410191019900BF8D
:1017B00001688904FCD5012001904FF4803002902B
:1017C0000024049408940220CDE90A0005210C911C
:1017D000A0210825CDE90D10109004200F9001A83C
:1017E00012941195FFF740FB15A93F201490032098
:1017F00031C140204FF48061CDE91800CDE91A10C5
:1018000014A80421FFF784F944F2F440C5F602005D
:1018100050F8F41C41F0800140F8F41C016841F0DC
:1018200002010160006800F0020000900098FFF7DC
:101830006FF81CB0B0BD000080B54EF6885C42F277
:10184000000ECEF2000CC5F2002EDCF8001041F4C0
:101850007001CCF80010DEF8001001F00F0106292D
:1018600006D8DEF80010072262F30301CEF800105C
:1018700044F200414EF67F53C5F60201CEF6F62340
:101880000A6842F001020A6000220A6108681840F2
:101890000860DEF80000000706D5DEF80000072328
:1018A00063F30300CEF8000040F200208A61CA61B1
:1018B000C0F202200A6288620020C0F2FF10C862F3
:1018C00040F28020C0F2011008634A638863CA6353
:1018D00008644A64086820F48020086041F200002F
:1018E0000A66C5F600400068B2EB507F05D148F2A9
:1018F00008100121C5F20010016044F2000043F21B
:10190000D201C5F2002001604FF000604CF8800C5D
:1019100080BD00000000000080B5FFF799FDFEF7D4
:10192000F7FEFFF721F8FFF71FFF80BD0000000062
:1019300080B5930706D4D20700F1280015D100F036
:10194000E3F880BD836A02F0010203EA010040EA85
:10195000020C8842184618BF0020002A08BF18460B
:10196000BCF1000F08BF604680BD00F0B9F880BD33
:1019700010B540F2080CC2F2004CDCF84420002AFA
:10198000134618BF01231AD014698C4202D94FF0B4
:10199000000E0BE09646D268002AA1EB0401134624
:1019A00018BF01230DD01469A142F3D2C0E902E2AD
:1019B00001614BB113699060591A116104E04FF055
:1019C000000EC0E902E201610EF10C01BEF1000F50
:1019D00008BF0CF14401086010BD000000000000C9
:1019E000C16800291CBF82688A6040F20801C06893
:1019F000C2F20041486470477047000000000000D8
:101A0000FEE70000000000004EF60C50CEF2000091
:101A10000068C0F3022070474EF60C50CEF2000072
:101A20000068C0F3022070474EF6145300F00F0216
:101A3000CEF20003B0F1FF3F1A4400F16043C8BF8B
:101A400003F56442080110707047000000000000B8
:101A50004EF60C514FF6FF03CEF200010A681A4011
:101A600060F30A2242F0806040F0FD700860704729
:101A700010B5044601F07CF9002808BF10BD2068AD
:101A80004FF0FF3100F0A8FA10BD00000000000088
:101A900080B5006800F0BCFA80BD000000000000C6
:101AA00010B50446002000F0CFFA002820601CBFCB
:101AB000012010BD0520214600F0FEFA002010BDD7
:101AC00010B5044601F054F9002808BF10BD206885
:101AD00000F0D6FA10BD000080B500F0E1F980BD3D
:101AE00010B550E8002F02EA01038B4203D0BFF388
:101AF0002F8F002205E022EA010340E8003404B100
:101B0000EFE7104610BD000010B550E8002F0A4264
:101B100003D1BFF32F8F002205E022EA010340E842
:101B2000003404B1F1E7104610BD000000000000D1
:101B300040F20800C2F200405630D0E85F1F11B9F1
:101B4000BFF32F8F04E04A1EC0E8532F03B1F4E720
:101B500088B270470000000050E8001F4A1E40E8AD
:101B6000002303B1F8E7704750E8001F11B9BFF335
:101B70002F8F04E04A1E40E8002303B1F4E7084633
:101B8000704700000000000010B5D0E85F2F531C24
:101B9000994200D80023C0E8543F04B1F5E790B261
:101BA00010BD00000000000010B540F20801C2F2B4
:101BB00000415631D1E85F2F904202D8BFF32F8FFA
:101BC00004E0531CC1E8543F04B1F3E790B210BDE8
:101BD00050E8001F4A1C40E8002303B1F8E77047B3
:101BE00050E8001F4A1C40E8002303B1F8E77047A3
:101BF00050E8001F11B9BFF32F8F04E00A6840E8D6
:101C0000002303B1F4E7084670470000000000001D
:101C100010B502680A60BFF35F8F50E8002F0B68B1
:101C20009342F6D140E8001404B1F2E710BD000081
:101C30000121D0E84F2FC0E8431F03B1F9E7D0B22C
:101C40007047000000000000704700000000000026
:101C5000F0B581B01F4616460C4600F099FB0546CC
:101C6000F0B1EFB9E4B12878FA2819D12846FFF786
:101C700033FCF8B1074600F10C016A6A2046FEF712
:101C8000E1FB0EB1F87830703846FD6000F074FC6E
:101C900000F0B6FC28462146FEF7CEFD002406E003
:101CA0006FF0030128466FF00304FEF795FD204610
:101CB00001B0F0BD28462146FEF7AEFD6FF00204EC
:101CC000F5E70000000000002DE9F0411E469046B7
:101CD0000C4600F05DFB054618B316BB0CB3287824
:101CE000FA281ED105F10C0000F0DEFA18B3064602
:101CF0000C306A6A2146FEF7A5FBF92030703046A9
:101D00000027B77086F80380C6E9014500F034FC6F
:101D100000F076FC28462146FEF76EFD3846BDE809
:101D2000F0816FF0030128466FF00307FEF754FDC2
:101D30003846BDE8F08128462146FEF769FD6FF080
:101D40000200BDE8F0810000B0B540F20805C2F223
:101D50000045B5F85440FFF7EBFE50B105F15A00CD
:101D60002146FFF711FFE96D51F8200000F00CFC4F
:101D7000B0BD0020B0BD000070B540F208060446BA
:101D8000C2F20046B6F854502846FFF70DFFA842AD
:101D900009D206F158002946FFF7F6FEF16D41F829
:101DA0002040012070BD002070BD00000000000038
:101DB000FFF7B2FDFFF7D0FA00F072F840F2D960F9
:101DC00043F61832C0F60000C0F60002002100F011
:101DD000AFFF40F21C11C2F20041086000F07CF835
:101DE000FEE700000000000010B50446FEF79CFC72
:101DF000FFF7FEFA10B9FFF7BFFA38B16FF0050030
:101E00006FF00504FEF798FC204610BD42F6915C89
:101E10002046C0F6000C00DF10BD000000000000EE
:101E200010B50446FEF790FCFFF7E2FA10B9FFF791
:101E3000A3FA38B16FF005006FF00504FEF77CFCE3
:101E4000204610BD42F6B95C2046C0F6000C00DF0B
:101E500010BD00000000000080B5FFF7D1FA28B9DE
:101E6000FFF796FA10B9FFF7EBFA10B100F0C8FFD0
:101E700080BD42F6016CC0F6000C00DF80BD0000A2
:101E800080B5FFF7BDFA10B9FFF782FA10B100F084
:101E9000BFFF80BD42F6116CC0F6000C00DF80BDB4
:101EA00010B500F029F9FEF767FCFFF7A9FA10B9A1
:101EB000FFF76EFA38B16FF005006FF00504FEF71A
:101EC0004FFC204610BD42F6296CC0F6000C00DF26
:101ED00010BD00000000000010B5FEF755FCFFF734
:101EE0008FFA10B9FFF754FA38B16FF005006FF0B0
:101EF0000504FEF735FC204610BD42F6917CC0F685
:101F0000000C00DF10BD0000F0B581B01C46154686
:101F10000E460746FEF764FCFFF77AFA10B9FFF7A2
:101F200043FA38B1384631462A462346FFF790FE39
:101F300001B0F0BD43F2110C3846C0F6000C31463A
:101F40002A46234600DF01B0F0BD0000000000007B
:101F500070B514460D460646FEF756FCFFF758FAD4
:101F600010B9FFF721FA38B100206FF00501002405
:101F7000FEF732FC204670BD43F2491C3046C0F6E5
:101F8000000C2946224600DF70BD00000000000062
:101F9000F0B581B01C4615460E460746FEF740FCDC
:101FA000FFF736FA10B9FFF7FFF938B13846314676
:101FB0002A462346FFF788FE01B0F0BD43F2E12C2C
:101FC0003846C0F6000C31462A46234600DF01B0F1
:101FD000F0BD000000000000B0B50D460446FEF75D
:101FE0002FFCFFF71DFA10B9FFF7EAF940B16FF0C7
:101FF000050120466FF00505FEF73EFC2846B0BD02
:1020000043F2F93C2046C0F6000C294600DFB0BD83
:10201000B0B50446FEF728FCFFF702FA10B9FFF747
:10202000CFF940B16FF0050120466FF00505FEF7CE
:1020300023FC2846B0BD43F2E14C2046C0F6000C1C
:1020400000DFB0BD0000000010B50446FEF718FC2C
:10205000FFF7E6F910B9FFF7B3F938B100206FF0D8
:1020600005010024FEF708FC204610BD43F2C15CC8
:102070002046C0F6000C00DF10BD0000000000008C
:10208000B0B50446FEF704FCFFF7CAF910B9FFF734
:1020900097F940B16FF0050120466FF00505FEF796
:1020A000EBFB2846B0BD43F2516C2046C0F6000C55
:1020B00000DFB0BD00000000FEE7000000000000EF
:1020C00070470000000000007047000000000000A2
:1020D000FEE700000000000040F20800C2F20040ED
:1020E000007A70470000000040F20800C2F2004091
:1020F000007A7047000000007047000000000000F8
:1021000040F20800C2F20040007A70470000000070
:102110002DE9F04381B0044690460E460027002882
:1021200018BF002E09D12046314642463B46FEF7F5
:1021300033FB384601B0BDE8F083B8F1030FF2D8A5
:1021400006F10F00082120F007052046FFF7B8F937
:10215000074600BFD7E90001C21B21F00301511A55
:10216000A94205D2016807460029F3D10027DAE722
:102170002046FFF7A9F9D0E9002101EB0509C0F8D5
:102180000490A2F108012046FFF79AF941684945F9
:1021900038BFC0F80490786860B120F00301384679
:1021A000FFF78EF9396801603860074645EA080193
:1021B000416002E045EA0800786008213846FFF7F0
:1021C0007FF90746AFE700002DE9F0410446884655
:1021D0000026002818BFB8F1000F07D1204641465D
:1021E0003246FEF7E9FA3046BDE8F081002140466C
:1021F0000027FFF765F9A0F1080508212046FFF741
:102200005FF90646A84204D03746366886B1AE422A
:10221000FAD1706820F003052046FFF755F94168B0
:10222000A1EB050141602FB1306801263860D5E788
:102230000026D3E7002070600126CFE700000000F1
:10224000F0B581B004460D4608B1600708D0002201
:10225000204629460026FEF7B3FA304601B0F0BD0D
:10226000182DF4D315F00700F1D12046FFF72CF913
:1022700005601027476008212046FFF721F9064630
:10228000A5F108012046FFF71BF93060002101602D
:102290000122306847602046716029460126FEF71A
:1022A0008FFADAE700000000B0B558B105461430E7
:1022B000FFF79EFC044610B1281DFFF789FC284655
:1022C000214602E0002000210024FEF769FA2046A2
:1022D000B0BD00000000000070B504460D4680B19E
:1022E000E068A8420DD82069A8420AD904F1140078
:1022F0002946FFF78DFC201DFFF72EFC002200264B
:1023000003E06FF003026FF0030620462946FEF754
:102310004BFA304670BD0000F0B581B00E4600218A
:10232000002818BF002E21D01446002A1CBF1D46CD
:10233000002B1BD004FB0651066000272246C0E993
:102340000174C0E9035131462B464561FEF730FA6E
:10235000012E08D0704200BF01302919421C2960AB
:102360000D46F9D100E029460F600121084601B071
:10237000F0BD0000000000007047000000000000F9
:1023800070470000000000007047000000000000DF
:1023900070470000000000007047000000000000CF
:1023A00070470000000000002DE9F04104468078ED
:1023B00000283ED0E56821462846FFF7D1F805F110
:1023C0000C060020207030462146FFF785FFA868E4
:1023D000002867D03046FFF767FF002808BFBDE838
:1023E000F0810446284600F0C7F800F0C9FA002141
:1023F000002206464FF0000800F0D6FB304600F001
:102400004BFB8768064604F10C006A6A3946FEF702
:1024100019F8F9202070F068E0702846214684F809
:102420000280FFF771F828463946FEF7E9F9BDE862
:10243000F081A5686168A86868B3407883282AD1CC
:102440002846FEF7DDF9284600F096F800F098FAE5
:102450000021002206464FF0000800F0A5FB3046A0
:1024600000F01AFB8668074604F10C016A6A3046E0
:10247000FDF7E8FFF86808B1E178017028463146B9
:10248000FEF7DAF905F10C00214684F80080FFF729
:1024900023FFBDE8F0812846FEF7B2F92846214621
:1024A000FFF732F8BDE8F08170470000000000003F
:1024B00070470000000000002DE9F041002808BF2F
:1024C000BDE8F081044600274FF0010801E000BF9D
:1024D00034B3E078254664690007F9D50021284621
:1024E0002F76FEF7D9F9A8680028F1D0284600F029
:1024F00047F800F045FA00210022064600F054FBA0
:10250000F06AEE602F61002868614FF0010118BF8A
:1025100005612846F56285F81880FEF79DF9D7E732
:10252000BDE8F0810000000080B5C27892071FD599
:10253000C06890F821C0C36A02E000BF5B6973B154
:102540009A688A4208BF9268002AF7D092F920E080
:102550004FFA8CF29645C8BF5FFA8EFCEEE790F812
:102560002010614508BF80BD80F820C000F04CFA03
:1025700080BD000000000000704700000000000067
:1025800070470000000000007047000000000000DD
:102590007047000000000000B0B5FFF7D5FB48B35E
:1025A00040F20804C2F2004404E000BFA847FFF76D
:1025B000CBFBF8B10178F1390829F8D8DFE801F050
:1025C0000A090E09091216090500256FFFF7DCFE3E
:1025D000ECE7ECE7256E00F02FFAE7E7656EFFF712
:1025E0006FFDE3E7A56E00F023F8DFE7E56EFFF788
:1025F000C3FEDBE7002000F03BF9B0BD00000000A7
:1026000010B50446FFF7B8FB40B140F20800C2F233
:102610000040417A39B10121817210BD022021466A
:10262000FFF74AFD10BDFFF777F810BD000000006E
:10263000704700000000000070470000000000002C
:10264000B0B5044690F920500120607040F20800B7
:10265000C2F200401C3000F0F3F900BF0146806870
:1026600040B190F92020AA42F8DCC4E902018C6054
:102670000C3003E0A06001F10800E1600460204636
:10268000FEF736F9B0BD000010B54A1C1DD040F26F
:10269000080CC2F2004CDCF82C30002B1A4618BF94
:1026A00001222DD0DC698C4202D94FF0000E29E0C6
:1026B0009E461B69002BA1EB04011A4618BF01229C
:1026C00020D0DC69A142F3D21CE040F208010023D3
:1026D000C2F2004101F13004214600BF1A460B68E6
:1026E000002B03F11001F9D14FF0FF31C16100213E
:1026F0000161002A426118BF02F11004206010BD80
:102700004FF0000E0EF11004BEF1000FC16108BFC2
:102710000CF12C04002AC0E9043E206008BF10BD63
:10272000DA6903F11404511AD961206010BD000068
:10273000C269511C01690ED021B1CB691A44CA612A
:1027400042694A614269016962B940F20800C2F215
:102750000040C162704700291CBF42694A6142695A
:1027600001691AB1116100214161704740F208000E
:10277000C2F200400163704770B540F20806C2F231
:102780000046F46A002C00F07180E0690138E061D5
:1027900018BF70BD607813384FEA301008284FD842
:1027A000DFE800F0054E090D1726303A44002046B8
:1027B000FDF7BEFF44E02046FEF78EF840E02046DD
:1027C00000F016F9FFF7E4FEFFF77EFCFDF7C4FF0B
:1027D00036E0204600F00CF9FFF7DAFEFFF768FE5E
:1027E00021460546FFF7A0FE2846FEF731F827E010
:1027F000204600F0FDF8FFF7CBFEFFF71DFFFEF7C8
:102800004FF81DE0204600F0F3F8FFF7C1FEFFF798
:10281000B7FDFDF7D9FF13E0204600F0E9F8FFF718
:10282000B7FEFFF7BDFDFDF7E3FF09E0204600F02E
:10283000DFF8FFF7ADFEFFF7B3FDFDF7F9FF00BFCF
:10284000204600F029F901682046FEF759F8204695
:1028500000F0BEF8204600F013F924692CB1E069BD
:1028600000283FF497AF00206061F46270BD000063
:1028700070B50546FFF738FC064600F075F80446CB
:102880005DB1022E05D195F9200094F920108842FF
:1028900016DC284600F0F4F870BD022EFCD140F2A0
:1028A0000800C2F20040456A002DF5D095F92000DD
:1028B00094F920108842D8BF70BD284600F088F8EF
:1028C0002046FFF7BDFE284600F03AF970BD000033
:1028D00010B50446807881074FF00001218013D5A0
:1028E000C00608D440F20800216BC2F20040406FDD
:1028F000FFF76AFC08E040F20800216BC2F20040DA
:10290000D0F88400FFF7E8FCA078C00708BF10BD2E
:1029100040F20801C2F20041D1F8880018B1214606
:10292000FFF7DAFC10BDD1F880002146FFF74CFC20
:1029300010BD00000000000040F20800C2F200409C
:10294000406970470000000040F20800C2F20040F9
:10295000406970470000000040F20800C2F20040E9
:10296000406970470000000040F20800C2F20040D9
:102970004069704700000000704700000000000040
:10298000B0B58468A568856015B100F059F8E860B5
:102990000020E0602046B0BDB0B591F920500C4653
:1029A00000F04EF80146806848B190F92020AA4214
:1029B000F8DAC4E902010C308C600460B0BDA0609C
:1029C00001F10800E1600460B0BD000000000000FB
:1029D000C168002908BF704782688A608168002941
:1029E0001CBFC268CA600021C160704700000000BF
:1029F0000178F12918BF7047C0680178F129FBD030
:102A00007047000000000000B0B5044630B1204619
:102A10000178F12902D1C0680028F9D1FFF7B8FD8B
:102A2000002808BFB0BD05462046FFF7D1FF284665
:102A30002146FFF7B1FFB0BD704700000000000065
:102A40007047000000000000B0B50446407833280D
:102A500015D194F82320616A2046FEF769FF00280B
:102A600008BFB0BD054600222046294600F09CF86C
:102A700094F82310606A2A462346FDF729FFB0BD6B
:102A800080B501460120487040F20800C2F20040C3
:102A90001C30FFF781FF80BD10B590F82210846BC9
:102AA0000846FEF741FE204410BD00000000000073
:102AB00040F208000021C2F200404161704700006E
:102AC00080B5FFF751FF78B10146006B8A6B8242F7
:102AD00007D942F6A5620068CEF25A22904208BF9A
:102AE00080BD0120FFF7E8FA80BD00000000000073
:102AF00070B543F6202442F2D100C0F60004C0F6BF
:102B000000000021A26D666E00F05EFEFFF734FF4C
:102B100040F20805C2F20045A86276B142F6614073
:102B2000E26DC0F60000002100F04EFEFFF724FF2A
:102B30000028A86418BF012070BD012070BD0000EE
:102B400010B504460220607040F20800C2F2004056
:102B50008461FFF7B5FF2046FDF7CEFE10BD0000F3
:102B6000F0B581B00C460546FFF7BEFA02284FF0DB
:102B7000000017D140F20807C2F20047796A89B114
:102B8000FFF7F2FE21460646FDF78EFE304621464F
:102B90007570FFF779FD07F11C00FFF7F1FEFFF7F5
:102BA000CFFF012001B0F0BD70B515460E460446BA
:102BB000FDF7A6FE2046FFF76FFF06602046FFF7F1
:102BC000B7FD204615B1FFF753FE70BDFFF758FF64
:102BD00070BD00000000000070B5FEF7F1FC40F28F
:102BE0000805C2F20045286DE96801F10101E960BC
:102BF00000B18047FFF7C0FD0020FFF739FE286CC9
:102C000068B1A969AE6B8E4202D0C5E90E1070BDE5
:102C1000E86B00281CBF0138E863E86B00B170BDA9
:102C2000FFF75AFA0228FAD16C6A002CF7D094F810
:102C3000200096F82010884218BF70BD2046FFF78C
:102C4000C7FEA86BFFF71CFFA86BFDF751FE2046DF
:102C5000FFF776FFAC63286CE86370BD00000000EE
:102C600082B043F620200821C0F60000D0E91820E9
:102C7000FFF76EF9FFF790FB40F2080542F6B94105
:102C8000C2F200456C46C0F60001C5E9130100BF61
:102C9000E86C00224FF0FF332146FFF735F900289A
:102CA000F6D1DDE90001FDF72FFEDDE900108847D0
:102CB000EEE700000000000070B540F20805C2F227
:102CC00000456C6C002C08BF70BD206901260138DE
:102CD000206102E066706C6CC4B12069B0B9204616
:102CE000FEF77EFEE86C04F1180100220023FFF7D6
:102CF0004FF918B103202146FFF7DEF9E0780128EB
:102D0000E8D161692046FEF733FEE4E770BD0000BC
:102D1000FDF7DAFD43F2517CC0F6000C00DF002025
:102D20004FF0FF31FDF7CCFDFEE700000000000092
:102D300070B514460D460646FDF7D6FDFEF778FB46
:102D400010B9FEF749FB38B100206FF005010024EF
:102D5000FDF7B6FD204670BD43F2C97C3046C0F693
:102D6000000C2946224600DF70BD00000000000074
:102D700010B548F28064C2F20044207828B9FFF709
:102D80006BF8022801DB01202070207810BD0000C4
:102D900010B570B1044613202146FFF7E1FE20B1C3
:102DA0002046FDF7CDFC002010BDFFF7C5FDFDF767
:102DB000BFFC002010BD000010B540F20801C2F2B7
:102DC0000041C968441A002C09DD13202146FFF791
:102DD000C7FE60B12046FDF7BBFC002010BD6FF0C0
:102DE00003006FF00304FDF7A7FC204610BDFFF7BA
:102DF000A3FDFDF79DFC002010BD000000000000B9
:102E000010B5FFF77DF90446FDF7AEFC204610BD76
:102E100010B540F20804C2F20044E068FDF7A8FCD7
:102E2000E06810BD000000002DE9F04140F2080705
:102E3000C2F20047387A58B1012800F0A1804FF063
:102E4000FF304FF0FF34FDF78BFC2046BDE8F081EA
:102E500007F108009C21FDF764FB43F62028C0F62B
:102E60000008D8E90201F965B8F81010D8F82C402C
:102E7000A7F85410D8F8301038642046FFF7E0F96E
:102E8000002818BFC7F88040D8E905412046D8E996
:102E90000756FFF7D5F9D7F88010002818BF21464C
:102EA000284679673146FFF7CBF9D7F8801000281C
:102EB00018BF2946B967D8E909512846FFF7C0F974
:102EC000D7F880100028D8F8344018BF2946F96791
:102ED0003CB121682046D4E90223FFF71DFAC7F868
:102EE0008440D8F838403CB121682046D4E9022318
:102EF000FFF712FAC7F88840D8F83C403CB1216887
:102F00002046D4E90223FFF707FAC7F88C40D8F827
:102F100040403CB121682046D4E90223FFF7FCF988
:102F2000C7F89040D8F844403CB121682046D4E925
:102F30000223FFF7F1F9C7F89440D8F848403CB1B4
:102F400021682046D4E90223FFF7E6F9C7F8984044
:102F5000D8F84C403CB121682046D4E90223FFF761
:102F6000DBF9C7F89C40D8F850403CB121682046B6
:102F7000D4E90223FFF7D0F9C7F8A0400120387246
:102F8000FDF7FEFB0020BDE8F0810000000000001E
:102F9000B0B540F20804C2F20044207A012818D1EA
:102FA000FFF7A6FD68B1FEF79FFB43F6202540F230
:102FB0002941C0F60005C0F600016868FEF728FB4D
:102FC00070B14FF0FF304FF0FF34FDF7C9FB2046E2
:102FD000B0BD6FF00600FDF7C3FB4FF0FF30B0BD92
:102FE000FEF712FB2061FEF7F3FA04F11C00FFF775
:102FF000C7FCFFF7A5FD2878C0070CBF03200220FF
:1030000080F3148802202072FDF7C2FB0020B0BDBF
:103010002DE9F0411F4690460D46FFF7B9F90446E9
:10302000002818BF002D09D16FF0030120466FF072
:103030000305FDF7D1FB2846BDE8F0812078FA288A
:10304000F2D12046FEF748FA00284DD00646204629
:103050003146FEF785FA06F10C01626A2846FDF753
:10306000F1F9B8F1000F02D0F07888F8000020469E
:103070002946FDF7E1FB04F10C07314638460025EF
:103080003570FFF729F9A068002850D03846FFF7BF
:103090000BF900284FF0000549D006462046FFF7FF
:1030A0006BFAFFF76DFC002101220746FFF77CFD5C
:1030B0003846FFF7F1FCD0F80880074606F10C000F
:1030C000626A4146FDF7BEF9F9203070F868F07089
:1030D00020463146B570FEF717FA20464146FDF707
:1030E0008FFB2846BDE8F081DFB1204629463A46ED
:1030F000FDF77AFB83203946FFF732FDD0B1204639
:10310000FFF73AFA0446FFF71FFC01462046FFF797
:1031100043FCEFF30980C0E902586FF00100BDE8FD
:10312000F08120462946FDF777FB6FF0020528461F
:10313000BDE8F0812046FDF75BFB6FF00100BDE8C4
:10314000F0810000000000002DE9F04F81B0A0B137
:103150000E4691B1054606F10F0020F00307B5FABF
:1031600085F0B7FA87F108441F2810D800206FF0C7
:1031700003010024FDF730FB05E000206FF00301A0
:103180000024FDF729FB204601B0BDE8F08F07FBC6
:1031900005F982B194681368D2E90480E4B1A1070B
:1031A00002D1D168332927D800206FF0080100240C
:1031B000FDF712FBE7E74FF000080024002340F280
:1031C0000801C2F2004100937CB18A464FF0000B27
:1031D000B8F1000F2CD03AE0D16869B100206FF04F
:1031E00008010024FDF7F8FACDE7D1F8A00090B16E
:1031F0008A46FFF759F815E0B8F1000F59D0484555
:1032000002D318F00300DAD000206FF00901002487
:10321000FDF7E2FAB7E78A46D1F8800034210122AF
:10322000FEF776FF04464FF0010BB8F1000F0ED108
:103230006CB1DAF87C0000224946FEF769FF80464F
:1032400050B340464946FDF74AF90BF1020BECB189
:10325000FA20207084F802B0009860600020A0601E
:103260002946C4E90960C4E90B0004F10C003A46A0
:103270004346FFF751F842F2A9306168C0F60000FA
:10328000CAF870002046FDF7A3FA7CE700206FF033
:103290000401FDF7A1FA76E7BBF1000F11D0DAF8CF
:1032A000A000514690B18A462146FFF715F8002448
:1032B000CBE740B100206FF009010024FDF78CFA44
:1032C00061E70024C1E74FF0000878E78A46D1F8AB
:1032D00080002146FEF778FF0024B6E700000000DA
:1032E0002DE9F0411F4690460C46FFF751F806467F
:1032F000002818BF002C09D16FF0030130466FF091
:103300000307FDF769FA3846BDE8F0813078FA28FE
:10331000F2D1B06830B34078832823D130462146BB
:10332000FDF76EFA3046FFF727F9FFF729FB00217A
:1033300001220546FFF738FC2846FFF7ADFB8568FC
:103340000746726A28462146FDF77CF8F868294648
:10335000002818BF80F800803046FDF76DFA002085
:10336000BDE8F08106F10C00FEF79EFFB0B1054606
:103370000C30726A2146FDF765F8F9202870304656
:1033800029460027AF7085F80380FEF7BDF8304668
:103390002146FDF735FA3846BDE8F081DFB1304609
:1033A00021463A46FDF740FA93203946FFF7D8FB0D
:1033B000C8B13046FFF7E0F80546FFF7C5FA014609
:1033C0002846FFF7E9FAEFF30980C0E902486FF0F9
:1033D0000100BDE8F08130462146FDF719FA6FF093
:1033E0000200BDE8F0813046FDF722FA6FF00100DF
:1033F000BDE8F0810000000070B50E46FFF754F8FC
:103400000446FFF7A9FAB0B364B305462078F5285F
:1034100028D1207EB8B3E178CA0702D0E268AA4278
:103420004ED0002E40D088070AD5E06895F92010CC
:1034300090F920208A4203DA80F82010FFF7E4FA9E
:1034400020463146FDF700FA53203146FFF788FB4E
:1034500080B32046FFF794F82946FFF79DFA6FF0F6
:10346000010070BD6FF0030120466FF00305FDF70A
:1034700003FA284670BD6FF007012046FDF7FCF9FE
:103480004FF0FF3070BDE86AE5600021216100283F
:10349000606118BF0461EC620120207601212046A2
:1034A000FDF7DAF9002070BD2046FDF7EDF96FF069
:1034B000020070BD2046FDF7CBF96FF0010070BD32
:1034C000FF2803D001302076C1B2E8E76FF00F018A
:1034D0002046FDF7D1F96FF0020070BD000000003A
:1034E000B0B5FEF7E1FF044640B32078F52825D1BA
:1034F000207E002848D061690029E0681CBF22694D
:103500000A61216901F11402002908BF00F12C02AF
:10351000E17889076169116021D590F82110C26AAC
:1035200001E000BF526992B19368002BFAD093F981
:1035300020304DB2AB42C8BFD9B2F3E76FF0030100
:1035400020466FF00305FDF797F92846B0BD90F8C7
:1035500020208A4203D080F82010FFF755FAA06897
:1035600078B12046FFF70CF8054600BF2846FFF764
:1035700007FA6FF002010022FFF716FBA06800288F
:10358000F4D10020FFF774F9A078C0074FF00000D5
:1035900020700FD040F20801C2F20041D1F894002F
:1035A00018B12146FEF798FE04E0D1F880002146CC
:1035B000FEF70AFE2046FDF75BF90020B0BD0000D3
:1035C00070B548B18468D0E90056E4B1A1071CD1B8
:1035D000C0681B2803D818E0002400260025E4B1A9
:1035E000002074B3F5212170A0700020E6702946F8
:1035F0006560C4E90200C4E9040020762046FDF7B6
:103600002FF9204670BDC06820B100206FF008017E
:10361000002419E00024002CE2D140F20801C2F29B
:103620000041D1F8940010B1FEF73EFE05E0D1F85C
:1036300080001C210122FEF76BFD04460120002CB6
:10364000D0D100206FF00401FDF716F9204670BDBF
:1036500070B5FEF729FF0446FFF77EF9A8B15CB10B
:1036600005462078F52807D1207EB0B1E168A9424F
:103670001BD06FF00D0112E06FF0030120466FF0D8
:103680000305FDF7F9F8284670BD6FF007012046E5
:10369000FDF7F2F84FF0FF3070BD6FF00E012046DD
:1036A000FDF7EAF86FF0020070BD01382076C1B274
:1036B0002046FDF7F1F8207E00281CBF002070BDD9
:1036C000606900281CBF21690161206900F11401B3
:1036D000002808BF05F12C01E078800760690860C8
:1036E00012D595F82100E96A01E000BF496949B1A6
:1036F0008A68002AFAD092F9202043B29A42C8BFC1
:103700001046F3E785F82000A068C8B12046FEF710
:1037100037FFFFF735F90021002205460026FFF7A5
:1037200043FAE86AE5602661002860614FF0010114
:1037300018BF0461012020762046EC62FDF78CF86A
:1037400000200025FFF794F8284670BD0000000017
:10375000B0B5FEF7C9FC022835D140F20805C2F227
:103760000045686A002808BFB0BDFFF7FDF80446B1
:10377000C06AFEF7A1FEA06930B100210022FFF768
:1037800013FAA069FDF7ACF8EFF30980A06305F127
:103790001C00FFF7F5F8FFF7D3F9FFF789F9E07898
:1037A000C00703D12046FFF793F809E004206070BA
:1037B000686B0021E1600028A06018BFC4606C63E2
:1037C0002046FDF779F8B0BD2DE9F04F81B0A8B1E2
:1037D00006468946CAB19468D2E9001B1569D2E948
:1037E000057A54B3A00702D1D06843282ED8002010
:1037F0006FF008010024FDF763F8F8E000206FF097
:1038000003010024FDF75CF8F1E04FF0180A0024F2
:103810004FF0000B00250027002127B1482F28D3A7
:1038200017F0070025D140F20802C2F200420091D1
:1038300034B34FF00008D5B376E0D06830B1002043
:103840006FF008010024FDF73BF8D0E01DB1EFB1A7
:1038500015F007001AD1BAF1000F58D0AAF10100F3
:103860003828DAD300206FF00B010024FDF728F888
:10387000BDE000206FF00A010024FDF721F8B6E05A
:10388000D2F8880048B1FEF70FFD0CE000206FF081
:103890000A010024FDF714F8A9E0D2F880004421C1
:1038A0000122FEF735FC04464FF00108E5BBDCB30E
:1038B0005FB140F20800C2F20040406F002239467A
:1038C000FEF726FC05466DBB13E040F2080243F606
:1038D0002021C2F20042C0F60001D2F884004F6DF0
:1038E000C0B1FEF7E1FC0546002818BF08F110083A
:1038F000C5B95FEAC87014D040F20801C2F20041B5
:10390000D1F8880040B12146FEF7E6FC09E04FF00F
:10391000180A82E7506FD1E7D1F880002146FEF700
:1039200053FC002448F00208002C64D040F2F1104F
:10393000208084F80280DDF8008084F803B0002045
:10394000C4F80480FD21C4E90200C4E90400C4E90C
:10395000060084F8221043F62021C0F60001C4F8C6
:103960002300C4F82700C4F82B0084F82F00E819BE
:1039700084F820A0403884F821A0C4E90C57A06343
:10398000087842F6A561E6634007CEF25A21296025
:103990000BD527F00300442807D0A7F14401281DC8
:1039A00021F00301CC22FCF792FDA56B34212846BF
:1039B000FCF7B7FD40F2080142F61150C2F2004197
:1039C000C0F60000C5E90D064FF08070E863C5F849
:1039D000209042F64920C0F600000866E16B2046C0
:1039E0004246FCF765FF14B12046FEF741FF204632
:1039F00001B0BDE8F08F00206FF00401FCF760FF1C
:103A0000002CF1D1F3E7F1EE100A4FF6FF71C0F28E
:103A1000C03120EA010040F04070E1EE100A70472A
:103A200003000000E803000005000000300100244E
:103A30001000000000000000000000000000000076
:103A400000000000000000000000000070010024E1
:103A500000800000000000000000000000000000E6
:103A60000000000000000000000000000000000056
:103A700000000000000C0000643B0008A03B0008B0
:103A8000883B000804000000F48100247C820024AC
:103A90000000000000000000000000000000000026
:103AA0000000000000000000000000000000000016
:103AB000000000000000000070810024A4810024A8
:103AC00000000000010203040102030406070809C4
:103AD000D63B0008000000000000000000000000CD
:103AE00000000000000200002A00000000000000AA
:103AF00000000000E53B000800000000000000009E
:103B00000000000000000000000400002B00000086
:103B10000000000000000000F73B0008000000006B
:103B2000000000000000000000000000000800008D
:103B30002C0000000000000000000000C43B000852
:103B40000000000000000000000000000000000075
:103B50000004000029000000000000000000000038
:103B6000000000000000000000000000F4810024BC
:103B700044000000808200240002000001000000D8
:103B80000000000000000000000000000000000035
:103B90007081002434000000A48100245000000043
:103BA00000000000000000003882002444000000F3
:103BB00080840024000200002800000000000000B3
:103BC000000000006F735274785468726561645528
:103BD0007365724946006F735274784C454454685B
:103BE00072656164006F735274784D736750726FC1
:103BF000546872656164006F7352747853746172B3
:103C000074546872656164005254582056352E35DC
:103C10002E310000383C000800000024B8000000ED
:103C2000D4020008F03C0008B8000024D08B00004B
:103C3000F0020008000000000090D0030090D003C4
:103C4000083C0008D1B3FB020000000000000000A7
:103C50000000000000000000000000000000000064
:103C60000000000000000000000000000000000054
:103C70000000000000000000000000000000000044
:103C80000000000000000000000000000000000034
:103C90000000000000000000000000000000000024
:103CA0000000000000000000000000000000000014
:103CB0000000000000000000000000000000000004
:103CC00000000000000000000000000000000000F4
:103CD00000000000000000000000000000000000E4
:103CE00000000000010000001000000000000000C3
:040000050800029954
:00000001FF
