:020000040800F2
:1000000048A40024AD020008E927000821240008C4
:1000100031270008C1050008A93A000800000000C7
:10002000000000000000000000000000D1020008F5
:100030002106000800000000690300087903000899
:10004000C7020008C7020008C7020008C70200086C
:10005000C7020008C7020008C7020008C70200085C
:10006000C7020008C7020008C7020008C70200084C
:10007000C7020008C7020008C7020008C70200083C
:10008000C7020008C7020008C7020008C70200082C
:10009000C7020008C7020008C7020008C70200081C
:1000A000C7020008C7020008C7020008C70200080C
:1000B000C7020008C7020008C7020008C7020008FC
:1000C000C7020008C7020008C7020008C7020008EC
:1000D000C7020008E1360008C7020008F136000830
:1000E000C7020008C702000800000000C70200089D
:1000F000C7020008C7020008C7020008C7020008BC
:10010000C7020008C7020008C7020008C7020008AB
:10011000C7020008C7020008C7020008C70200089B
:10012000C7020008C7020008C7020008C70200088B
:10013000C7020008C7020008C7020008C70200087B
:1001400000000000000000000000000000000000AF
:10015000C7020008C7020008C702000801370008EC
:10016000C7020008C7020008C7020008C70200084B
:10017000C7020008C7020008C7020008000000000C
:10018000C7020008C7020008C7020008C70200082B
:10019000C7020008C7020008C7020008C70200081B
:1001A000C7020008C7020008C7020008C70200080B
:1001B000C7020008C7020008C7020008C7020008FB
:1001C000C7020008C7020008C7020008C7020008EB
:1001D000C7020008C7020008C7020008C7020008DB
:1001E000C7020008C7020008C7020008C7020008CB
:1001F000C7020008C7020008C7020008C7020008BB
:10020000C7020008C7020008C7020008C7020008AA
:10021000C7020008C7020008C7020008C70200089A
:10022000C7020008C7020008C7020008000000005B
:10023000C7020008C702000800000000C70200084B
:10024000C7020008C7020008C7020008C70200086A
:10025000C7020008C7020008C7020008C70200085A
:10026000C7020008C7020008C7020008C70200084A
:10027000C7020008C7020008C7020008000000000B
:10028000C7020008C7020008C702000800000000FB
:1002900000000000C7020008DFF80CD000F004F9ED
:1002A000004800477140000848A4002406488047E1
:1002B00006480047FEE7FEE7FEE7FEE7FEE7FEE74B
:1002C000FEE7FEE7FEE7FEE7A92D00089902000819
:1002D0001EF0040F0CBFEFF30880EFF30980816973
:1002E00011F8021C91BB01B590E80F10E047BDE882
:1002F00000508CE80300244B93E80600914208BFAD
:10030000704741B91EF0100F10D12049086820F045
:10031000010008600AE02CE9F00F1EF0100F08BF82
:100320002CED108AC1F838C081F822E01A6092F8EA
:100330002210906B61F0FF0E1EF0100F08BFB0ECA2
:10034000108AB0E8F00F80F309887047104A1368EC
:100350009942FAD801B552F821C00FC8E047BDE86C
:100360000050CCF80000704701B504F0C9F9BDE8B1
:100370000140EFF3098CBEE701B504F09DFCBDE838
:100380000140EFF3098CB6E72000002434EF00E0D1
:10039000245B00082DE9F05F0546002092469B464D
:1003A00088460646814640241BE02846414647468B
:1003B000224600F069F853465A46C01A914110D3BC
:1003C00011461846224600F050F82D1A67EB010836
:1003D0004F4622460120002100F047F817EB0009A4
:1003E0004E41201EA4F10104DFDC484631462A4676
:1003F0004346BDE8F09F40EA01039B0703D009E0B4
:1004000008C9121F08C0042AFAD203E011F8013B00
:1004100000F8013B521EF9D27047D2B201E000F859
:10042000012B491EFBD270470022F6E710B5134698
:100430000A4604461946FFF7F0FF204610BD30B5C6
:100440000B46014600202022012409E021FA02F592
:100450009D4205D303FA02F5491B04FA02F528442C
:10046000151EA2F10102F1DC30BD202A04DB203A86
:1004700000FA02F1002070479140C2F1200320FAF7
:1004800003F3194390407047202A04DB203A21FAF5
:1004900002F00021704721FA02F3D040C2F120029D
:1004A0009140084319467047064C074D06E0E06846
:1004B00040F0010394E8070098471034AC42F6D3AB
:1004C000FFF7EEFE045C0008245C0008000000005A
:1004D00080B540F2515045F6A022C0F60000C0F6AB
:1004E0000002002104F094FC40F2C40145F67C2295
:1004F000C2F20041C0F60002086040F23950C0F676
:100500000000002104F084FC40F2C00145F6E8221E
:10051000C2F20041C0F60002086040F28150C0F60D
:100520000000002104F074FC40F2C801C2F2004156
:10053000086080BD0000000003F00EFE00F1C8045A
:10054000022003F03DFC204603F0CAFDC834F7E763
:100550000A2003F0A9FDFBE701F0F6FD03F0A0FB84
:10056000FFF7B6FF03F080FC03F0F6FD441C00BF6C
:10057000204603F0B5FD0134FAE70000000000005A
:1005800082B00DF1070402E0142003F08DFD00207D
:10059000214603F035FC20B19DF80710052003F03B
:1005A0004FFC0520214603F02BFC0028ECD09DF8E1
:1005B0000710002003F044FCE6E700000000000004
:1005C000FEE700000000000080B502F0F9FA02F03A
:1005D000C7FA80BD0000000080B5082804D240B2F0
:1005E00006A151F8200080BD45F6D53040F21F111C
:1005F000C0F6000000F018F8002080BDD0180024DC
:100600000000000084190024000000000000000029
:10061000381A002400000000000000000000000064
:100620007047000000000000002908BF704700BFAD
:10063000FEE700000000000070470000000000001E
:10064000704700000000000070470000000000003C
:10065000704700000000000070470000000000002C
:10066000704700000000000070470000000000001C
:10067000704700000000000070470000000000000C
:1006800070470000000000007047000000000000FC
:1006900070470000000000007047000000000000EC
:1006A00070470000000000007047000000000000DC
:1006B00070470000000000007047000000000000CC
:1006C00070470000000000007047000000000000BC
:1006D00070470000000000007047000000000000AC
:1006E000704700000000000070470000000000009C
:1006F000704700000000000070470000000000008C
:10070000704700000000000070470000000000007B
:10071000704700000000000070470000000000006B
:10072000704700000000000070470000000000005B
:10073000704700000000000070470000000000004B
:10074000704700000000000070470000000000003B
:10075000704700000000000070470000000000002B
:10076000704700000000000070470000000000001B
:10077000704700000000000070470000000000000B
:1007800070470000000000007047000000000000FB
:1007900070470000000000007047000000000000EB
:1007A00070470000000000007047000000000000DB
:1007B00070470000000000007047000000000000CB
:1007C00070470000000000007047000000000000BB
:1007D00070470000000000007047000000000000AB
:1007E000B0B5B3F5804F034615D1002053F822C0B1
:1007F000CCF6F0708D680CEA000C8C69D1E9000E23
:1008000040EA0C00C96840EA0E1040EA0520204387
:1008100040EA014101E06FF07041002043F82210EE
:10082000B0BD000000000000B0B50A6850F82230EA
:1008300023F0010340F82230D1E900EC8B684CEA48
:100840000302082BD1F80CC008BF42F04002D1E9E6
:10085000043442EA0C02D1F818C01A43CB6922438F
:100860000C6A42EA0C02D1F824C01A438B6A224374
:10087000CC6A42EA0C02D1F830C01A434D6B2243D5
:100880008C6B42EA0C0250F82E302A4340F280452D
:10089000CFF6C07522432B401A4340F82E200A6B36
:1008A000B2F5801F06D10B6823B1036823F48013CF
:1008B0001A4302600A681AB1496B02681143016069
:1008C0000020B0BD00000000F0B500EB820340F254
:1008D000000CCFF6F07C5A688E6802F0404E0D692D
:1008E000D1E9002742EA0E02CC6842EA07124F69BA
:1008F00042EA06228E690CEB0555FE3742EA0442B5
:100900002A43324342EA07625A600268D2020BD598
:100910004268096922F4700243680CEB01511143EB
:1009200023F47002114341600020F0BD000000007C
:1009300040F22040C5F60000016841F0010101606D
:1009400070470000000000002DE9F04F83B00E68F2
:10095000002E00F0C98000F126420A2302F1FF7246
:1009600040F2040C4FEAB222019242F20042C5F674
:10097000000CC5F602024FF0010B90424FF000054B
:1009800008BF092300274FF0010800930AE000BFC9
:100990000E68043736FA08F208F1010805F102057D
:1009A00000F0A280A8F1010A0BFA0AF216EA020985
:1009B000EED04E68122E17D80BFA06F414F0061F6C
:1009C00012D00323D0F808E0AB40CC682EEA030332
:1009D000AC40234383604368C6F3001423EA020259
:1009E00004FA0AF31A4342600323C268AB4046F09C
:1009F00010046FEA030E9A438B68122C03FA05F376
:100A000042EA0302C26012D16FF0030207F01C0435
:100A100002EA5A020F260244A640136AD1F810B027
:100A2000B3430BFA04F44FF0010B23431362026843
:100A30004B6803F0030402EA0E02AC40DB0042EA1A
:100A400004020260A4D544F2F443C5F602031A6816
:100A500042F002021A601A6807F00C0302F0020268
:100A60000292029A2AF0030240F2084A019C009E78
:100A7000C5F6000A092C38BF26460F2452F80AE0B2
:100A80009C402EEA040406FA03F3234342F80A309A
:100A9000DCF87C204B6842EA0906DC0358BF22EAF6
:100AA00009069C034FF0B04ECCF87C60DCF8802047
:100AB00042EA090658BF22EA0906DC02CCF8806047
:100AC000DEF8002042EA090658BF22EA09069B0226
:100AD000CEF80060DCF8002042EA090658BF22EA9E
:100AE0000906CCF8006053E703B0BDE8F08F0000C2
:100AF00041F20000C5F600400068000C704700009D
:100B00004AF24000C2F20040006870470000000056
:100B100080B5032000F0D0F801F02AF844F2184123
:100B200045F66C23C5F60201C0F600030A68C2F35D
:100B30000322096801F00F019A5C595C02F01F0260
:100B4000D04040F20802C2F2004201F01F0120FA38
:100B500001F1116040F20401C2F20041086000207E
:100B600000F00AF800281CBF012080BD00F080F8CA
:100B7000002080BD00000000B0B540F2B001C2F21C
:100B80000041097801B3044640F20400C2F200407B
:100B90004FF47A72B2FBF1F10068B0FBF1F001F0B2
:100BA0001BFB0F2C4FF001050CD858B94FF0FF304C
:100BB00000222146002500F06FF840F2B400C2F296
:100BC000004004602846B0BD0120B0BD0000000018
:100BD000B0B502784EF69C5CCEF2000C43784CF82F
:100BE000043CF2B14368CCF80030037BC17A90F842
:100BF0000AE0457B447A42EA0372837B42EA016160
:100C0000C27B41EACE41007A41EA854141EA434153
:100C100041EA024141EA042141EA4000CCF80400E3
:100C2000B0BD0020CCF80000CCF80400B0BD00003E
:100C30004EF62450CEF20000BFF35F8F016821F41E
:100C40008031016000210167704700000000000052
:100C50004EF6245140F00100CEF20001086708680A
:100C600040F480300860BFF34F8FBFF36F8F704741
:100C700081B044F2F440C5F60200016841F002017F
:100C80000160006800F002000090009801B0704719
:100C900080B502F00DFF80BD70B514460D460646C6
:100CA00002F016FF2946224601F0A2FD0146304619
:100CB00002F01EFF70BD000080B502F02DFF80BD68
:100CC00080B500F005FF44F2204145F66C22C5F6E0
:100CD0000201C0F600020968C1F30211515C01F083
:100CE0001F01C84080BD000080B544F2384EC5F6F3
:100CF000020E5EF8103C5EF8102CC2F3053C5EF864
:100D00000C2CBCF1000FC2F30012DEF80410C1F38A
:100D1000CC0102FB01F100EE101AB8EE400A0BD034
:100D200003F00303022B0CD073B95EF8381C89065C
:100D30000DD49FED351A18E00021C0E90011816043
:100D400080BD9FED301A10E09FED2D1A0DE05EF88A
:100D5000381C49F20002C0F2D032C1F3C10122FABC
:100D600001F101EE101AB8EE411A02EE10CA9FED21
:100D7000274AB8EE422ADEF800106FF35F2103EE37
:100D8000101A81EE021AB8EE433ADEF8001000EEB7
:100D9000043AB7EE000AC1F3462133EE002A03EE0F
:100DA000101AB8EE433A21EE021A33EE002A81EE11
:100DB000022ABCEEC22A80ED002ADEF80010C1F340
:100DC000064102EE101AB8EE422A32EE002A81EEF7
:100DD000022ABCEEC22A80ED012ADEF80010C1F31F
:100DE000066102EE101AB8EE422A32EE000A81EED7
:100DF000000ABCEEC00A10EE101A816080BD00BF70
:100E00000024744A20BCBE4B0024744C00000039FE
:100E100080B544F2404EC5F6020E5EF8183C5EF80E
:100E2000182CC2F3055C5EF8142CBCF1000FC2F361
:100E30000022DEF80410C1F3CC0102FB01F100EE48
:100E4000101AB8EE400A0BD003F00303022B0CD0AB
:100E500073B95EF8401C89060DD49FED351A18E071
:100E60000021C0E90011816080BD9FED301A10E0C3
:100E70009FED2D1A0DE05EF8401C49F20002C0F211
:100E8000D032C1F3C10122FA01F101EE101AB8EE1D
:100E9000411A02EE10CA9FED274AB8EE422ADEF848
:100EA00000106FF35F2103EE101A81EE021AB8EE04
:100EB000433ADEF8001000EE043AB7EE000AC1F340
:100EC000462133EE002A03EE101AB8EE433A21EE23
:100ED000021A33EE002A81EE022ABCEEC22A80ED0D
:100EE000002ADEF80010C1F3064102EE101AB8EE37
:100EF000422A32EE002A81EE022ABCEEC22A80ED9E
:100F0000012ADEF80010C1F3066102EE101AB8EEF5
:100F1000422A32EE000A81EE000ABCEEC00A10EE50
:100F2000101A816080BD00BF0024744A20BCBE4BF3
:100F30000024744C000000392DE9F04381B00446D0
:100F4000C07844F22C490007C5F6020901D40026F6
:100F50002DE0606E4FEA305003280DD80026DFE800
:100F600000F0020E1613D9F80000002640F40030FD
:100F7000C9F800004EB912E0012636B90FE0201D75
:100F8000022101F099FC06464EB1B04611E004F191
:100F90002400022101F020FD0646002EF5D1D9F8EB
:100FA0002400616E20F440100843C9F824004FF07B
:100FB00000086078C0072FD0606D042807D8DFE8EC
:100FC00000F00A131B030300F6B1B04624E001262B
:100FD000002EFAD118E0D9F8000040F40030C9F82A
:100FE0000000002EF1D10FE0201D002101F064FC73
:100FF0000646002EE9D107E004F12400002101F0AB
:10100000EBFC0646002EE0D1D9F82400616D20F0FB
:1010100007000843C9F824006078800731D5A06D27
:101020004FEAB010042807D8DFE800F00A131B03CA
:101030000300F6B1B04624E00126002EFAD118E0F4
:10104000D9F8000040F40030C9F80000002EF1D1BA
:101050000FE0201D002101F02FFC0646002EE9D1F3
:1010600007E004F12400002101F0B6FC0646002E42
:10107000E0D1D9F82400A16D20F4E0700843C9F84C
:1010800024006078400733D5D4F8A4004FEA7050AC
:10109000042807D8DFE800F00A131B030300F6B1A9
:1010A000B04625E00126002EFAD118E0D9F800005C
:1010B00040F40030C9F80000002EF1D10FE0201DEF
:1010C000002101F0F9FB0646002EE9D107E004F10A
:1010D0002400002101F080FC0646002EE0D1D9F862
:1010E0002C00D4F8A41020F460000843C9F82C00A8
:1010F0006078000733D5D4F8A8004FEA30600428A0
:1011000007D8DFE800F00A131B030300F6B1B0466E
:1011100025E00126002EFAD118E0D9F8000040F4AD
:101120000030C9F80000002EF1D10FE0201D002191
:1011300001F0C2FB0646002EE9D107E004F12400CD
:10114000002101F049FC0646002EE0D1D9F82C0020
:10115000D4F8A81020F0E0600843C9F82C00E0782B
:10116000800727D5A06C4FEA3010032806D8DFE8A7
:1011700000F002091202AEB1B0461BE00126002EBB
:10118000FAD10FE0D9F8000040F40030C9F80000AF
:10119000002EF1D106E0201D022101F08DFB064654
:1011A000002EE9D1D9F82000A16C20F030000843CE
:1011B000C9F820006078C00631D5E06D4FEA3030C4
:1011C000042807D8DFE800F00A131B030300F6B178
:1011D000B04624E00126002EFAD118E0D9F800002C
:1011E00040F40030C9F80000002EF1D10FE0201DBE
:1011F000002101F061FB0646002EE9D107E004F171
:101200002400002101F0E8FB0646002EE0D1D9F8C9
:101210002400E16D20F4E0400843C9F82400607820
:10122000800625D5206E4FEA3040052807D8DFE834
:1012300000F0030A0F03030396B1B04618E001263D
:10124000002EFAD10CE0201D012101F035FB04E055
:1012500004F12400012101F0BFFB0646002EECD171
:10126000D9F82400216E20F4E0200843C9F82400B6
:101270006078400627D5D4F8AC004FEA30700528D6
:1012800007D8DFE800F0030A0F03030396B1B04666
:1012900019E00126002EFAD10CE0201D012101F0F9
:1012A0000BFB04E004F12400012101F095FB06464C
:1012B000002EECD1D9F82C00D4F8AC1020F0E0408E
:1012C0000843C9F82C00607800061FD5E06ED0B145
:1012D000B0F1005F12D0B0F1805F24D1D9F80000E6
:1012E00040F40030C9F800007EB9D9F82400E16E5E
:1012F00020F040500843C9F8240007E0201D0121D8
:1013000001F0DAFA0646002EEFD0B046E078C007CA
:1013100029D0606C03280AD8DFE800F0020D16021D
:10132000CEB1B0461FE00126002EEED1DDE701264A
:10133000002EF6D10FE0D9F8000040F40030C9F8D3
:101340000000002EEDD106E0201D022101F0B4FACC
:101350000646002EE5D1D9F82000616C20F003008C
:101360000843C9F82000A078400643D5D9F8D40333
:1013700040F48070C9F8D403FFF7C2FB074600BFF2
:10138000D9F8D403C00505D4FFF7BAFBC01B652804
:10139000F6D303266EBBD9F84410D4F8B000414010
:1013A00011F4407F11D0D9F84410D9F8442042F408
:1013B0008032C9F84420D9F8442021F4407122F445
:1013C0008032C9F84420C9F84410B0F5807F0FD1AD
:1013D000FFF796FB074641F2893500BFD9F8440074
:1013E000800705D4FFF78CFBC01BA842F6D3032669
:1013F00086B1B0462078C00741D0A06F4FEAF00018
:10140000052823D8DFE800F003262B03030376B377
:10141000B04634E04FF6CF73D4F8B00059F81C2C26
:10142000C0F2FF0300F4407122F47C5203EA10136F
:10143000B1F5407F08BF1A436FF31F3049F81C2CE9
:10144000D9F844100843C9F84400D3E70126002E18
:10145000DED10CE0201D012101F02EFA04E004F1A0
:101460002400012101F0B8FA0646002ED0D1D9F8A7
:101470002800A16F20F038000843C9F82800207820
:10148000800723D5606F052807D8DFE800F0030A3E
:101490000F03030396B1B04618E00126002EFAD1DF
:1014A0000CE0201D012101F007FA04E004F1240002
:1014B000012101F091FA0646002EECD1D9F828005E
:1014C000616F20F007000843C9F828002078400722
:1014D00025D5D4F89000052807D8DFE800F0030AE6
:1014E0000F03030396B1B04619E00126002EFAD18E
:1014F0000CE0201D012101F0DFF904E004F12400DB
:10150000012101F069FA0646002EECD1D9F82C0031
:10151000D4F8901020F007000843C9F82C00207878
:10152000800627D5D4F88C004FEA3070052807D8FC
:10153000DFE800F0030A0F03030396B1B04619E099
:101540000126002EFAD10CE0201D002101F0B4F993
:1015500004E004F12400022101F03EFA0646002EC8
:10156000ECD1D9F82800D4F88C1020F0E0400843E2
:10157000C9F828002078400627D5D4F898004FEA0B
:10158000B020052807D8DFE800F0030A0F030303A3
:1015900096B1B04619E00126002EFAD10CE0201DCC
:1015A000002101F089F904E004F12400022101F096
:1015B00013FA0646002EECD1D9F82C00D4F8981076
:1015C00020F4E0500843C9F82C002078000627D505
:1015D000D4F89C004FEA7030052807D8DFE800F007
:1015E000030A0F03030396B1B04619E00126002E4B
:1015F000FAD10CE0201D002101F05EF904E004F1B5
:101600002400022101F0E8F90646002EECD1D9F8B9
:101610002C00D4F89C1020F460400843C9F82C003A
:101620002078000716D5D4F88000B0F5805F08D187
:1016300004F12400022101F0CFF9002818BF4FF077
:101640000108D9F82800D4F8801020F4405008434D
:10165000C9F828002078C00616D5D4F89400B0F553
:10166000807F08D104F12400022101F0B5F900289F
:1016700018BF4FF00108D9F82C00D4F8941020F4CA
:1016800040700843C9F82C00A078000721D5D4F891
:10169000A000B0F5003F19D0B0F5803F10D0C0BB1E
:1016A000201D002101F008F906468EB9D9F82C005A
:1016B000D4F8A01020F440300843C9F82C0008E00A
:1016C00004F12400022101F087F90646002EEDD036
:1016D000B046A078400729D5D4F88400B0F5401F63
:1016E00021D0B0F5001F18D0B0F5801F40F0B480B5
:1016F000D9F8000040F40030C9F80000AEB9D9F8BC
:101700002800D4F8841020F440100843C9F82800B9
:101710000CE00126002EDBD1C8E704F124000121F2
:1017200001F05AF90646002EE9D0B046A078C0076D
:101730001FD0E06CB0F5803F10D0B0B9D9F80000F0
:1017400040F40030C9F8000096B9D9F82000E16CE7
:1017500020F480300843C9F820000AE0201D02214F
:1017600001F0AAF806461EB9EFE70126002EECD0DC
:10177000B046E078800608D504F12400022101F08B
:101780002BF9002818BF4FF001082068810313D4FB
:10179000C10229D4C10031D481023AD4410042D4DB
:1017A000B0F1FF3F4FDDB8F1000F18BF4FF0010857
:1017B000404601B0BDE8F083E16F6FF0010202EB3B
:1017C0003122022A0AD34FEA31223AB1012A48D102
:1017D000D9F8002042F40032C9F80020002E43D08E
:1017E0004FF00108C102D5D5D9F82410226F21F09D
:1017F00000411143C9F82410C100CDD559F81C1C73
:10180000D4F8B42021F48041114349F81C1C810212
:10181000C4D5D9F82410A26E21F080711143C9F803
:1018200024104100BCD559F81C1C21F4004149F892
:101830001C1CD4F8B81059F81C2C114349F81C1C76
:10184000B0F1FF3FAFDCD9F82000216D20F040500F
:101850000843C9F82000A6E70126002E7FF465AFF3
:101860004DE70126002EBBD1D9F8282022F4407282
:101870001143C9F82810C1027FF58CAFB4E700000E
:101880002DE9F04381B0002800F0F28042F2000818
:101890000446C5F200288946D8F8000000F00F0081
:1018A00088420ED2D8F8000020F00F0040EA09006C
:1018B000C8F80000D8F8000000F00F00484540F0DC
:1018C000D780206844F218474107C5F602070AD5B9
:1018D00021693A6802F07002914204D93A6822F014
:1018E00070021143396001070AD561697A6802F014
:1018F0007002914204D97A6822F070021143796033
:10190000C1060AD5A1697A6802F4E062914204D95D
:101910007A6822F4E0621143796081060AD5E169B0
:10192000BA6802F07002914204D9BA6822F07002DB
:101930001143B96081070AD5E1683A6802F00F02E5
:10194000914204D93A6822F00F0211433960C0076E
:101950007ED1206881070AD5E1683A6802F00F025B
:10196000914204D23A6822F00F0211433960D8F84C
:10197000001001F00F0149450DD9D8F8001021F0F1
:101980000F0141EA0901C8F80010D8F8001001F071
:101990000F0149456CD141070AD521693A6802F027
:1019A0007002914204D23A6822F070021143396009
:1019B00001070AD561697A6802F07002914204D287
:1019C0007A6822F0700211437960C1060AD5A169D4
:1019D0007A6802F4E062914204D27A6822F4E0620A
:1019E0001143796080060AD5E069B96801F0700199
:1019F000884204D2B96821F070010843B86000F051
:101A0000B7F8396845F66C22C0F60002C1F303212D
:101A10003B6803F00F03515CD25C01F01F01C8402A
:101A200002F01F0140F2080220FA01F1C2F2004266
:101A3000116040F2040140F2B402C2F20041C2F26D
:101A4000004208601068FFF797F801B0BDE8F08326
:101A5000386820F47061D4E90102032841EA0201E8
:101A6000396009D0022829D157F8181C890307D4F6
:101A7000012001B0BDE8F08357F8181C8901F7D5A3
:101A800057F8081C21F00701084347F8080CFFF736
:101A900037F8064641F2883557F8080C616800F0BF
:101AA0003800B0EBC10F3FF454AFFFF729F8801BAB
:101AB000A842F1D9032001B0BDE8F083012857F80E
:101AC000181C02D1C905D3D5DAE74907D0D5D7E725
:101AD00080B500F04DF844F2184145F66C23C5F688
:101AE0000201C0F600030A68C2F30322096801F08C
:101AF0000F019A5C595C02F01F0220FA02F201F019
:101B00001F0040F2080122FA00F0C2F20041086012
:101B100040F20401C2F200410A6080BD00000000F2
:101B200080B5FFF7D5FF44F21C4145F66C22C5F69F
:101B30000201C0F600020968C1F30211515C01F014
:101B40001F01C84080BD000080B5FFF7C1FF44F20F
:101B50001C4145F66C22C5F60201C0F60002096878
:101B6000C1F30221515C01F01F01C84080BD00009B
:101B700044F20041C5F602010869C0F3C20003281F
:101B80000FD002282BD078BB0868800649F20000ED
:101B9000C0F2D03058BF70470968C1F3C101C840D6
:101BA00070478A6A886AC0F3051CCB6A486B03F0E9
:101BB0000103BCF1000FC0F3CC0003FB00F000EE0A
:101BC000100AB8EE400A14D002F00302022A12D022
:101BD000A2B90868800614D49FED251A1EE047F6C6
:101BE0004000C0F27D10704740F60010C0F23D008A
:101BF0007047002070479FED1D1A0FE09FED1A1AE5
:101C00000CE0086849F20002C0F2D032C0F3C10013
:101C100022FA00F001EE100AB8EE411A02EE10CAE4
:101C20009FED144AB8EE422A086B6FF35F2003EE73
:101C3000100A81EE021AB8EE433A086B00EE043A3D
:101C4000B7EE000AC0F34620013033EE000A21EE61
:101C5000000A01EE100AB8EE411A80EE010ABCEE4D
:101C6000C00A10EE100A70470024744A20BCBE4B14
:101C70000024744C000000392DE9F041002800F0E8
:101C800048810446007844F20046C007C5F60206C3
:101C90004DD0306900F03801B06A102905D01829FC
:101CA0000AD100F00300022806D1306880033AD53B
:101CB0006068C0BB012727E065686DB1B5F5803F5E
:101CC00006D0B5F5A02F306807D140F480203060F1
:101CD000306840F4803006E0306820F480303060B6
:101CE000306820F480203060FEF70AFF002D0546A2
:101CF00016D000BF3068800315D4FEF701FF401BEB
:101D0000B0F5FA7FF6D903270020002800F01782EB
:101D10000DE000BFFEF7F4FE401BB0F5FA7FF2D8ED
:101D200030688003F6D40120002800F00882207873
:101D3000800754D5306910F03801B06A17D01829DF
:101D400008BF5FEA807012D0E068316850B321F0BC
:101D5000190108433060FEF7D3FE0546306840079E
:101D60000AD4FEF7CDFE401B0228F7D928E03068E0
:101D7000400701D5E06868B3FEF7BAFE41F20301FF
:101D8000884208D820697168402821F47C3119D133
:101D900041F4003018E07068216920F0FE4040EA0C
:101DA000016011E021F001003060FEF7A9FE054658
:101DB0003068400709D5FEF7A3FE401B0328F7D380
:101DC000032708E041EA003070600120002800F09D
:101DD000B68104E001270020002800F0B0812078BF
:101DE000C0065AD5306900F03801B06A082905D01C
:101DF000182918D100F00300012814D13068C0055B
:101E000002D5E069802843D1FEF772FE41F203015A
:101E100088421CD8206A7168202821F0F8412FD10F
:101E200041F080402EE0E0690028306817D040F093
:101E300080003060FEF764FE054600BF3068C005D4
:101E4000E2D4FEF75DFE401B0228F7D916E0F068E9
:101E5000216A20F07C5040EA0160F06013E020F03D
:101E600080003060FEF74CFE054600BF3068C005BC
:101E700009D5FEF745FE401B0328F7D3032708E0EA
:101E800041EA806070600120002800F0588104E081
:101E900001270020002800F05281207800073CD460
:101EA000207880064DD4207840075ED4656A65B3FB
:101EB000306900F03800182840F09E80012DB16A8A
:101EC000306B26D001F00302A36A9A4221D1C1F3FC
:101ED0000511E26A91421CD10146226B6FF35F212A
:101EE000013A914215D1C0F34621626B013A914209
:101EF0000FD1C0F30641A26B013A914209D1C0F360
:101F00000660E16B0139884203D10027F8B2BDE8D1
:101F1000F0810127F8B2BDE8F08160690028706F98
:101F200039D040F001007067FEF7EAFD054600BFBA
:101F3000706F8007B4D4FEF7E3FD401B0228F7D989
:101F400025E0A0690028306844D040F4805030601B
:101F5000FEF7D6FD054600BF30688004A3D4FEF727
:101F6000CFFD401B0228F7D911E0D6F8000440F459
:101F70008070C6F80004FEF7C3FD0546D6F80004DD
:101F8000C00519D4FEF7BCFD401B6428F6D9032711
:101F9000F8B2BDE8F08120F001007067FEF7B0FDF7
:101FA00005460327706F80077FF57AAFFEF7A8FD1F
:101FB000401B0228F6D9C2E0A568EDB3012D05D07B
:101FC000052D306F39D140F004003067306F40F09C
:101FD000010038E020F480503060FEF791FD0546A6
:101FE000032700BF306880047FF55DAFFEF788FDF2
:101FF000401B0228F6D9A2E0306820F080703060E3
:10200000FEF77EFD022D05464FF003070AD100BF03
:102010003068800135D5FEF773FD401B0228F7D9E3
:102020008DE000BF306880017FF56FAFFEF768FD7F
:10203000401B0228F6D982E0306F20F001003067A3
:10204000306F20F004003067FEF75AFD002D054682
:1020500041F288384FF003070FD000BF306F800780
:102060003FF524AFFEF74CFD401B4045F6D966E036
:10207000FEF746FD401B404561D8306F8007F7D41E
:1020800014E704F12807B06A40F2F33188438ECF99
:102090000843591E40EA02104FF47E42B06202EB40
:1020A00047206FF35F214FF4FE0280B2E36B0844D8
:1020B000A16B02EB01414FF0FE4201F4FE0102EB85
:1020C0000362084402F0FE4108443063F06A4FF6B0
:1020D000F87120F00100F062706BA26C884340EA56
:1020E000C2007063F06A216C20F00C000843F062BB
:1020F000F06A616C20F002000843F062F06A40F47C
:102100008030F062F06A40F40030F062F06A40F42F
:102110008020F062F06A40F00100F062306840F028
:1021200080703060FEF7ECFC0446032730688001C5
:102130003FF5EBAEFEF7E4FC001B0228F6D9F8B23F
:10214000BDE8F081000000004EF21000CEF2000069
:10215000016841F0020101607047000000000000CA
:1021600088B370B5044690F8450015460E4628B968
:10217000002084F84400204600F02AF8206804F18A
:102180000801FEF751FB20683146A268FEF79CFB70
:10219000D4E90102E36A2946FEF722FBA068216820
:1021A00051F8202042F0010241F8202044F20000C2
:1021B000C5F20020016841F000410160012084F86F
:1021C0004500002070BD01207047000000000000A5
:1021D000704700000000000080B500F031FD80BDB8
:1021E0004EF21000CEF20000016821F00201016001
:1021F000704700000000000010B5B0B10446D0F8F0
:10220000800028B9002084F87C00204600F028F8DF
:102210002420C4F880002068016821F001010160D9
:10222000204600F045FF012801D1012010BDA06A21
:1022300010B1204600F098FE2068416821F49041DA
:102240004160816821F02A018160016841F001014B
:102250000160204600F0F8FE10BD00000000000004
:10226000704700000000000010B59AB007AC4C2188
:102270002046FEF7D9F844F200010020C5F2002103
:102280000690079101F582710891052100910221C4
:10229000CDE901110122CDE9032105912021CDE9EC
:1022A00009000B90CDE90C10CDE90E004FF48051E0
:1022B0001690CDE91400CDE91200CDE91010694661
:1022C00020460A46FFF74CFF20B103A04FF492715D
:1022D000FEF7AAF91AB010BD2E2E2F557365722F76
:1022E0006273702F7372632F6273705F666D635FCA
:1022F000696F2E630000000070B586B044F2E040C4
:1023000040F60045C5F60200C5F6020501AC0326FD
:10231000016841F008010160016801F008010191C4
:102320000199016841F010010160016801F010019C
:1023300001910199016841F040010160016801F0DB
:10234000400101910199016841F08001016001683B
:1023500001F0800101910199016841F480710160EF
:10236000016801F480710191019950F80C1C41F44D
:10237000805140F80C1C50F80C0C214600F48050A1
:102380000190019802200290012003900C200590FA
:102390004CF2B370019028460496FEF7D5FA4FF63A
:1023A0008070019005F580602146FEF7CDFA05F5B5
:1023B000406021460196FEF7C7FA4FF47F40019036
:1023C00005F580502146FEF7BFFA40F2CF6001903C
:1023D00005F5A0502146FEF7B7FA06B070BD000023
:1023E00040F2CC01C2F200410968084018BF012048
:1023F0007047000000000000002940F2CC01C2F24A
:10240000004102D00A68104302E00A6822EA000094
:10241000086041F20000C6F20000096801607047E0
:10242000FEE70000000000002DE9F04FB5B00020ED
:102430001F9001A84FF00108CDF80480FEF77CFD45
:1024400044F2E04740F20009C5F60207C5F602096A
:1024500030AC4FF0030A3868214640F00100386084
:102460003868072500F0010030903098386840F057
:1024700001003860386800F0010030903098386909
:1024800040F010003861386900F01000309030984A
:102490004FF4007030900220CDE931084846CDF865
:1024A000CCA03495FEF750FA484621464FF480669A
:1024B00030963495FEF748FA252000210122FEF7D8
:1024C000EBFB2520FEF7E4FB00204FF4E13101F0A7
:1024D00033FC41F2000B31A9C4F2010BDBF8000020
:1024E00040F02000CBF80000386840F0020038606F
:1024F000386800F0020000900098386840F0020050
:102500003860386800F0020000900098B86840F425
:102510008020B860B86800F4802000900098309661
:10252000022009F5806681E8010530462146349590
:10253000FEF70AFA4FF40060309030462146349599
:10254000FEF702FA272000210322FEF7A5FB272031
:10255000FEF79EFB02204FF4165101F0EDFB44F60E
:102560000000C4F20000016841F0200101603868F9
:1025700031A940F040003860386800F04000009019
:102580000098386840F004003860386800F00400B3
:1025900000900098386940F020003861386900F0F8
:1025A0002000009000984FF480403090022081E895
:1025B000010509F5C05021463495FEF7C5F9802084
:1025C000309009F5006021463495FEF7BDF94720AB
:1025D00000210622FEF760FB4720FEF759FB05208D
:1025E0004FF4E13101F0A8FBDBF8000440F02000DB
:1025F000CBF8000435B0BDE8F08F0000000000000B
:10260000EFF3108000281CBF01207047EFF311800A
:10261000002818BF01207047EFF3108000281CBF6E
:1026200001207047EFF31180002818BF0120704788
:10263000EFF3108000281CBF01207047EFF31180DA
:10264000002818BF01207047EFF3108000281CBF3E
:1026500001207047EFF31180002818BF0120704758
:10266000EFF30580002818BF01207047000000002C
:10267000EFF30580002818BF01207047000000001C
:10268000EFF30580002818BF01207047000000000C
:10269000EFF30580002818BF0120704700000000FC
:1026A0000121EFF3148021EA0000704700000000D0
:1026B000B0B584B0FEF7BCFA0120ADF800004FF0D1
:1026C0001050019012208DF808004FF48070ADF882
:1026D000090000206C46C0F201100390204603253B
:1026E0008DF80B50FEF774FA40F20110ADF80000BF
:1026F0004FF0C04001900F208DF808000020ADF889
:1027000009004FF08070039020468DF80B50FEF7C3
:102710005FFA0420FEF79CFA04B0B0BD0000000090
:1027200008447047000000007047000000000000EF
:10273000FEE700000000000010B50446283001F05C
:102740003FFA58B1E46A4CB1A01C01F09DFA18B1EF
:10275000A468002CF8D10024204610BD0024204697
:1027600010BD00000000000010B584465CF8303F4A
:102770005BB191F803E0DA7872450BD21A465B68D8
:102780006BB1DC787445F9D305E00022C1E9012280
:10279000C1620DE00022C1E90132083303E0C1E962
:1027A000013200F12C03002A196018BF02F1040C59
:1027B0002830CCF8001001F03FFA10BD00000000F6
:1027C0004A6802F10803002A08BF00F12C038A6856
:1027D0001A608A68131D002A08BF00F13003486898
:1027E0001860704700000000704700000000000003
:1027F00000F007004FF0FF3C80F00703042B28BFD8
:102800000423033838BF00200CFA03F399430CFA71
:1028100000F301FA00F022EA0301084370470000C8
:102820004EF21000CEF20000006870470000000079
:1028300040F2B800C2F200400178012908D100211D
:1028400001704EF604504FF08061CEF2000001603E
:102850004EF21000CEF20000016841F0010101606B
:1028600070470000000000004FF0FF30704700008C
:1028700058B140F20401C2F200410968B1FBF0F026
:10288000411E0020B0EB116F02D04FF0FF307047B7
:102890004EF62352FF23CEF2000213704EF21002C6
:1028A000CEF2000206231360516040F2B801C2F27A
:1028B0000041906008707047F0B581B044F22C4739
:1028C000C5F6020757F8042C02F00302032A02D1CE
:1028D000012001B0F0BD054657F82C0C0C4620F045
:1028E000806047F82C0CFEF70BF9064657F82C0CC5
:1028F000000105D5FEF704F9801B0228F6D964E033
:1029000057F8040CEE6895E80E0020F47C3040EA9D
:102910000130A2F101014FF47E4247F8040C02EBB2
:1029200043224FF0FE436FF35F2192B202EB0100AE
:102930004FF4FE012A6901EB064101F4FE0103EBAD
:102940000262084402F0FE410844F8603868696990
:1029500020F0C00040EA010038603868A96920F022
:10296000200040EA0100386038684FF6F87120F026
:10297000100038603869EA6920EA010040EAC200C4
:102980003861386840F0100038602CB1012C38688C
:1029900006D140F4801005E0386840F4002001E0E2
:1029A00040F40010386057F82C0C40F0806047F875
:1029B0002C0CFEF7A5F8044657F82C0C000107D4A0
:1029C000FEF79EF8001B0328F6D3032001B0F0BDEC
:1029D000002001B0F0BD0000F0B581B044F22C47FA
:1029E000C5F6020757F8042C02F00302032A02D1AD
:1029F000012001B0F0BD054657F82C0C0C4620F024
:102A0000805047F82C0CFEF77BF8064657F82C0C44
:102A1000800005D5FEF774F8801B0228F6D964E023
:102A200057F8040CEE6895E80E0020F07C7040EA40
:102A30000150A2F101014FF47E4247F8040C02EB71
:102A400043224FF0FE436FF35F2192B202EB01008D
:102A50004FF4FE012A6901EB064101F4FE0103EB8C
:102A60000262084402F0FE410844786138686969EE
:102A700020F4406040EA010038603868A96920F419
:102A8000007040EA0100386038684FF6F87120F4B1
:102A900080703860B869EA6920EA010040EAC20043
:102AA000B861386840F4807038602CB1012C386807
:102AB00006D140F4000005E0386840F4800001E0F1
:102AC00040F08070386057F82C0C40F0805047F888
:102AD0002C0CFEF715F8044657F82C0C800007D490
:102AE000FEF70EF8001B0328F6D3032001B0F0BD5B
:102AF000002001B0F0BD000080B586B044F2E04097
:102B0000C5F60200016841F002010160006801A9F8
:102B100000F0020001900198012002900020039033
:102B2000032004900420019040F20040C5F602000A
:102B3000FDF70AFF06B080BD7047000000000000EE
:102B400040F218404FF48021C5F602000160704742
:102B500040F218400421C5F60200016070470000F1
:102B600070B54EF614500021CEF2000043F6E07C22
:102B70000167BFF34F8FC26EC2F34E31C2F3C90279
:102B800002F1010E930700BF0CEA41121C46754684
:102B900044EA0206013D04F14044C0F84C62F7D11A
:102BA0000029A1F10101EFD1BFF34F8F016841F47A
:102BB00080310160BFF34F8FBFF36F8F70BD000096
:102BC0004EF614500021CEF20000BFF34F8FBFF33A
:102BD0006F8FC0F83C12BFF34F8FBFF36F8F016848
:102BE00041F400310160BFF34F8FBFF36F8F704727
:102BF000B0B54EF62254FF20CEF2000420702078AB
:102C000080F0FF00B0FA80F0C0F1200500F068FF0E
:102C1000A84228BF451CFE20A84004F8030CB0BD04
:102C20004EF604504FF08051CEF200000160704724
:102C3000C0064FF0200058BF602070470000000021
:102C4000B0B501380024B4EB106F01D00120B0BD45
:102C50004EF210050F21CEF2000568604FF0FF30F4
:102C600000F046FFAC60072028602046B0BD0000A1
:102C7000B0B59CB044F6180401A84C2100251B9562
:102C8000C5F60204CDE91955CDE91755CDE915551D
:102C90001495FDF7C9FB54F80C0C20F0040044F81F
:102CA0000C0C40F22C400095C5F60000016821F0A4
:102CB00001010160006800F001000090206840F40C
:102CC00040402060206800F440400090009800BF21
:102CD00020688004FCD5012001904FF480300290E0
:102CE0000024049408940220CDE90A0005210C91E7
:102CF000A0210825CDE90D10109004200F9001A807
:102D000012941195FEF7B8FF15A93F2014900320E7
:102D100031C140204FF48061CDE91800CDE91A108F
:102D200014A80421FEF7ACFD44F2DC44C5F602040D
:102D300054F8DC0C40F0800044F8DC0CA06940F052
:102D40000200A061A06900F0020000900098FDF769
:102D5000EFFD206840F000502060206800F0005037
:102D600000900098206840F080402060206800F0CB
:102D7000804000900098206840F00040206020686B
:102D800000F000400090009854F8340C40F080505F
:102D900044F8340C54F8340C40F0005044F8340C2F
:102DA0001CB0B0BD0000000080B54EF6885C42F259
:102DB000000ECEF2000CC5F2002EDCF8001041F43B
:102DC0007001CCF80010DEF8001001F00F010629A8
:102DD00006D8DEF80010072262F30301CEF80010D7
:102DE00044F200414EF67F53C5F60201CEF6F623BB
:102DF0000A6842F001020A6000220A61086818406D
:102E00000860DEF80000000706D5DEF800000723A2
:102E100063F30300CEF8000040F200208A61CA612B
:102E2000C0F202200A6288620020C0F2FF10C8626D
:102E300040F28020C0F2011008634A638863CA63CD
:102E400008644A64086820F48020086041F20000A9
:102E50000A66C5F600400068B2EB507F05D148F223
:102E600008100121C5F20010016044F2000043F295
:102E7000D201C5F2002001604FF000604CF8800CD8
:102E800080BD00000000000080B5FFF711FCFDF7D9
:102E90009BFBFDF73DFEFFF7EBFE80BD0000000051
:102EA00080B5930706D4D20700F1280015D100F0B1
:102EB00057FE80BD836A02F0010203EA010040EA86
:102EC000020C8842184618BF0020002A08BF184686
:102ED000BCF1000F08BF604680BD00F02DFE80BD34
:102EE00010B540F20C0CC2F2004CDCF84420002A71
:102EF000134618BF01231AD014698C4202D94FF02F
:102F0000000E0BE09646D268002AA1EB040113469E
:102F100018BF01230DD01469A142F3D2C0E902E227
:102F200001614BB113699060591A116104E04FF0CF
:102F3000000EC0E902E201610EF10C01BEF1000FCA
:102F400008BF0CF14401086010BD00000000000043
:102F5000C16800291CBF82688A6040F20C01C06809
:102F6000C2F2004148647047816ACA070CD18A07DF
:102F700015D44A071ED40A0727D4CA0630D48A06B5
:102F800039D44A0655D541E00268D0F82CC05368C0
:102F900023F4003343EA0C0353608A07E9D502683F
:102FA000D0F830C0536823F4803343EA0C035360F5
:102FB0004A07E0D50268D0F834C0536823F4802370
:102FC00043EA0C0353600A07D7D50268D0F838C02B
:102FD000536823F4004343EA0C035360CA06CED57A
:102FE0000268D0F83CC0936823F4805343EA0C0392
:102FF00093608A06C5D50268D0F840C0936823F470
:10300000005343EA0C0393604A0612D50268D0F8D5
:1030100044C0BCF5801F536823F4801343EA0C03BB
:10302000536006D1536823F4C00C836C43EA0C034D
:103030005360090658BF70470168C06C4A6822F4A3
:103040000022104348607047B0B582B004460020AB
:10305000C4F88800FDF754FD216805460968090792
:103060000AD54FF4001100226FF07E4000902046F8
:103070002B4600F0D9FA70B92068006840070DD5DA
:103080004FF4800100226FF07E40009020462B46D6
:1030900000F0CAFA10B1032002B0B0BD2020C4F87D
:1030A0008000C4F88400002084F87C0002B0B0BD29
:1030B000F0B583B004460368806846F6F316D4E999
:1030C0000312104362691043E2691043626E1F6885
:1030D000CCF6FF76104307EA0602104318605868E2
:1030E0004FF2FF4720F4405240F600401143596030
:1030F000C5F60000A1698342C1F2FF171CBF226A16
:1031000011439A6847F2FF763A40C4F20006114331
:103110009960DA6A44F2544122F00F02676AC5F6F8
:1031200002013A43B342DA624FF0800225DD40F6F5
:10313000FF77C4F20107BB423FDD834200F071809C
:1031400041F20047C4F20107BB4200F0758041F232
:103150000007C4F20107BB4240F0A5800A68C2F331
:10316000C203052B00F296800122DFE813F09C00D9
:1031700091009500970099009B0044F6FF37C4F238
:103180000007BB4233DC44F20047C4F20007BB42F5
:1031900000F05D8044F60007C4F20007BB4240F037
:1031A00082800A6802F00703052B00F27380002278
:1031B000DFE803F0796E7274767847F60007C4F2A0
:1031C0000007BB4200F04E8047F60047C4F20007FC
:1031D000BB4240F068800A6802F00703052B00F24A
:1031E00059800022DFE803F05F54585A5C5E44F6D1
:1031F0000047C4F20007BB4200F03F8045F20007E1
:10320000C4F20007BB4240F04E800A6802F0070398
:10321000052B00F23F800022DFE803F0453A3E40F4
:1032200042444A6802F00703052B33D80222DFE844
:1032300003F03A2F333537390A68C2F3C203052B3E
:1032400028D80122DFE803F02F24282A2C2E0A6830
:1032500002F00703052B1DD80022DFE803F0241934
:103260001D1F21230A6802F00703052B12D8002234
:10327000DFE803F0190E121416180A6802F00703AB
:10328000052B07D80022DFE803F00E0307090B0D1A
:10329000042208E0802206E0082204E0102202E076
:1032A000202200E040222368834240F60010C0F252
:1032B0003D0000F05380E369B3F5004F40F07880A3
:1032C000402A00F21A810025DFE812F041001201C5
:1032D000170117011B011701170117011F01170122
:1032E000170117011701170117011701260117010F
:1032F000170117011701170117011701170117010E
:1033000017011701170117011701170134011701E0
:1033100017011701170117011701170117011701ED
:1033200017011701170117011701170117011701DD
:1033300017011701170117011701170117011701CD
:103340001701170117011701170117013101002596
:10335000FEF7E6FB002840F0EF8040E1931E1E2BB5
:1033600000F274800027DFE813F01F0077007A0076
:103370007700770077007E0077007700770077008E
:10338000770077007700B800770077007700770044
:103390007700770077007700770077007700770075
:1033A00077007700770083000027FDF789FC5FE056
:1033B000402A00F2E1800025DFE812F04100D90048
:1033C000DE00DE00E200DE00DE00DE00E600DE0001
:1033D000DE00DE00DE00DE00DE00DE00ED00DE00EE
:1033E000DE00DE00DE00DE00DE00DE00DE00DE00ED
:1033F000DE00DE00DE00DE00DE00DE00FB00DE00C0
:10340000DE00DE00DE00DE00DE00DE00DE00DE00CC
:10341000DE00DE00DE00DE00DE00DE00DE00DE00BC
:10342000DE00DE00DE00DE00DE00DE00DE00DE00AC
:10343000DE00DE00DE00DE00DE00DE00F80000253B
:10344000FEF76EFB002840F0B580C8E0402A03D1AB
:103450004FF4004000270BE00020012708E06846F9
:10346000FDF742FC02E06846FDF7D2FC0027019818
:1034700078B3616A45F60C32C0F600026668012531
:1034800032F8112006EB4603B0FBF2F19942C0F08E
:10349000A6803303994200F2A28000210023FCF7AA
:1034A00079FF0902002341EA10613246000210EB65
:1034B000560041F10001FCF76DFF4FF6FF42A0F509
:1034C0004071C0F20F02914205D821683D46C860A4
:1034D00085E03D4683E0012581E051F8540C8006EB
:1034E00049F20000C0F2D03000F182800027BFE72F
:1034F0000025FEF729FBF8B971E000200125D8B9B5
:103500006DE06846FDF7F0FB02E06846FDF780FCE1
:103510000025019880B962E051F8540C800649F208
:103520000000C0F2D0306AD4002528B957E04FF42B
:1035300000400025002852D0616A45F60C32C0F6E2
:10354000000232F811106268B0FBF1F0510801EB93
:103550004000B0FBF2F14FF6F070084005D0C1F327
:10356000420122680843D06039E0012537E0002598
:10357000FEF7EAFAF0B932E000200125D0B92EE0DA
:103580006846FDF7B1FB02E06846FDF741FC002507
:10359000019878B923E051F8540C800649F20000F4
:1035A000C0F2D03035D4002520B918E04FF40040E7
:1035B0000025A0B1616A45F60C32C0F6000232F86F
:1035C00011106268B0FBF1F000EB5200B0FBF2F0BA
:1035D00080B2102802D32168C86000E001254FF0B6
:1035E0000110A0660020C4E91B00284603B0F0BD0E
:1035F00051F8541C0027C1F3C101C84038E751F805
:10360000541C0025C1F3C101C84000287FF494AFC9
:10361000E5E751F8541C0025C1F3C101C84000285A
:10362000C8D1DCE7000000002DE9F04381B004467A
:103630000068C0690840401AB0FA80F04009904222
:1036400037D1DDF820800D461646994608F101076E
:1036500009E000BF2068C0692840401BB0FA80F034
:103660004009B04225D1002FF4D0FDF749FA216876
:10367000B8F1000F0A6820D0A0EB090040451CD823
:10368000500744BFC8695FEA0050E3D54FF40060BB
:103690000862086820F4D0700860886820F0010093
:1036A00088602020C4F88000C4F88400C4F8880032
:1036B0000FE0002001B0BDE8F08322F4D070086074
:1036C000886820F0010088602020C4F88000C4F8D9
:1036D0008400002084F87C00032001B0BDE8F08362
:1036E00080B541F6D000C2F2004000F03DF880BD48
:1036F00080B541F68410C2F2004000F035F880BD7C
:1037000080B541F63820C2F2004000F02DF880BDAF
:10371000012282F31088B0F8A230002282F31088D0
:10372000F3B1D0F89020B0F8A030D25C0A7001213B
:1037300081F31088B0F8A0100131A0F8A010B0F803
:10374000962089B2914202D30021A0F8A010B0F8CF
:10375000A21001220139A0F8A210002080F31088E5
:103760001046704700000000F0B581B004460068C4
:10377000C5690668A906876826D506F0200107F006
:103780008052891820D0406AD4F89010B4F89E2056
:103790008854B4F89E104A1CA4F89E20B4F89610E1
:1037A00092B28A4202D30022A4F89E20B4F8A2204A
:1037B0008A4204D2B4F8A2100131A4F8A210D4F8BD
:1037C000AC1009B1C0B2884728062ED506F080009B
:1037D00007F40001401828D0B4F89C00E0B10120A3
:1037E00084F8B0002068D4F88C10B4F89A20895C72
:1037F0008162B4F89A000130A4F89A00B4F89410E9
:1038000080B2884202D30020A4F89A00B4F89C0049
:103810000138A4F89C0008E02068016821F08001CC
:103820000160016841F04001016005EA06004006C0
:1038300028D5B4F89C00C8B12068D4F88C10B4F82E
:103840009A20895C8162B4F89A000130A4F89A0049
:10385000B4F8941080B2884202D30020A4F89A00F1
:10386000B4F89C000138A4F89C000BE02168D4F85F
:10387000A8000A6822F040020A6000B180470020D8
:1038800084F8B0002068016A41F001010162016A18
:1038900041F002010162016A41F004010162016A22
:1038A00041F008010162016A41F010010162016A00
:1038B00041F040010162016A41F480710162016AD4
:1038C00041F400710162016A41F400310162016A50
:1038D00041F480110162016A41F02001016201B0EE
:1038E000F0BD00000000000070B581B0002A43D098
:1038F00000234FF0010C4FF0000E20E011F80E40B5
:10390000D0F88C50B0F898600EF1010EAC558CF3E5
:103910001088B0F898400134A0F89840B0F894505E
:10392000A4B2AC4228BFA0F89830B0F89C409645AD
:1039300004F10104A0F89C4083F310881CD08CF3A0
:103940001088B0F89C40ADF8024083F3108800BFA7
:10395000BDF80240B0F89450AC42CFD3046825685B
:1039600045F0800525608CF31088B0F89C40ADF8D8
:10397000024083F31088EBE70068016841F08001A2
:10398000016001B070BD0000F0B581B041F6D00417
:10399000B421C2F200442046FCF746FD44F600067E
:1039A00040F2D001C4F20006C2F2004106F54840E0
:1039B000206040F6D0404FF00427C2F200400025BE
:1039C000C4E92301C4F89470B421A4F89850A4F871
:1039D0009A50A4F89E50A4F8A050A4F8A250A4F8BD
:1039E0009C50C4E92955C4F8AC5084F8B05041F655
:1039F0008414C2F200442046FCF716FD41F2D000C8
:103A000004F18C02C2F2004040F2D0412660C2F2C2
:103A1000004183C242F64130A4F89850A4F89A506D
:103A2000C0F60000A4F89E5042F65131A4F8A05010
:103A3000C0F60001A4F8A250A4F89C50C4F8A40059
:103A400042F63930C0F60000C4E92A1084F8B050BC
:103A500041F63824C2F20044B4212046FCF7E4FCCD
:103A600006F54C40206041F2D04004F18C02C2F2D5
:103A7000004040F6D001C2F2004183C2A4F8985041
:103A8000A4F89A50A4F89E50A4F8A050A4F8A2500C
:103A9000A4F89C50C4E92955C4F8AC5084F8B0503F
:103AA00001B0F0BD00000000FEE7000000000000D3
:103AB000002848BF70474EF2001300F01F01400974
:103AC000CEF20003012202FA01F143F82010704700
:103AD0004EF60C50CEF200000068C0F30220704792
:103AE0004EF60C50CEF200000068C0F30220704782
:103AF0004EF6145300F00F02CEF20003B0F1FF3F78
:103B00001A4400F16043C8BF03F564420801107015
:103B100070470000000000004EF60C514FF6FF0306
:103B2000CEF200010A681A4060F30A2242F0806077
:103B300040F0FD700860704710B550E8002F02EAB1
:103B400001038B4203D0BFF32F8F002205E022EA4E
:103B5000010340E8003404B1EFE7104610BD000057
:103B600010B550E8002F0A4203D1BFF32F8F002277
:103B700005E022EA010340E8003404B1F1E7104611
:103B800010BD00000000000040F20C00C2F2004036
:103B90005630D0E85F1F11B9BFF32F8F04E04A1EE3
:103BA000C0E8532F03B1F4E788B27047000000006B
:103BB00050E8001F4A1E40E8002303B1F8E77047B1
:103BC00050E8001F11B9BFF32F8F04E04A1E40E8F0
:103BD000002303B1F4E7084670470000000000002E
:103BE00010B5D0E85F2F531C994200D80023C0E8DD
:103BF000543F04B1F5E790B210BD00000000000092
:103C000010B540F20C01C2F200415631D1E85F2FED
:103C1000904202D8BFF32F8F04E0531CC1E8543FF9
:103C200004B1F3E790B210BD50E8001F4A1C40E811
:103C3000002303B1F8E7704750E8001F4A1C40E832
:103C4000002303B1F8E7704750E8001F11B9BFF334
:103C50002F8F04E00A6840E8002303B1F4E7084628
:103C6000704700000000000010B502680A60BFF352
:103C70005F8F50E8002F0B689342F6D140E80014A4
:103C800004B1F2E710BD00000121D0E84F2FC0E8D9
:103C9000431F03B1F9E7D0B27047000000000000F5
:103CA00080B500F009F800F03FF800F019F800F0D6
:103CB0002BF880BD000000004EF6FC50CEF2000054
:103CC000016841F08071016041F200000021CEF2F4
:103CD00000004160016841F001010160704700008F
:103CE00080B5FEF709FBFEF7BFFA40F2CC0040F6C4
:103CF0001471C2F20040016041F20001C6F20001FD
:103D00000068086080BD000080B5012000F040F828
:103D1000022000F03DF8032000F03AF8042000F003
:103D200037F880BD0000000080B5FFF72DFEFEF7DC
:103D30007BFBFEF7E1FE80BD10B50C46FCF74CFCAA
:103D400028B344600021C0E9021101610C22C0E9DE
:103D500005212209C1614A2A016201D8042105E036
:103D600061094A2901D8012100E0002141620021B6
:103D700041668162FEF740FA002808BF10BD45F693
:103D8000D5304FF46D71C0F60000FCF74DFC10BD4E
:103D90000138C1B2032988BF704780B540B204A181
:103DA00051F820000121FEF727FBBDE88040704755
:103DB00000010000000200000004000000080000F4
:103DC0000138C1B2032988BF704710B540B207A1BE
:103DD00051F820402046FEF703FBB0FA80F041097D
:103DE0002046FEF709FBBDE81040704700010000C7
:103DF00000020000000400000008000000000000B5
:103E000010B50C46FCF7E8FB18B12146FFF780FC23
:103E100010BD002010BD000070B514460D46FCF723
:103E2000DBFB002808BF70BD0646D0F8A40000B137
:103E30008047304629462246FFF756FD70BD0000F8
:103E400080B582B08DF807100DF107010122FFF750
:103E5000E3FF02B080BD000010B50446C1B20020EF
:103E6000FFF7EEFF204610BD10B59CB001A803A9D6
:103E7000642200F051F908B11CB010BD45F6883439
:103E8000C0F60004204601F093FC0EA003A901F047
:103E90008FFC12A001F088FD204601F089FC0299F8
:103EA0000FA001F085FC0DA001F07EFD204601F081
:103EB0007FFC019910A001F07BFC08A001F074FDCB
:103EC0001CB010BD4B65726E656C20496E666F72DA
:103ED0006D6174696F6E3A20257300000D0000005B
:103EE0004B65726E656C2056657273696F6E20202B
:103EF00020203A20256400004B65726E656C2041DD
:103F000050492056657273696F6E3A20256400002F
:103F1000F0B581B01F4616460C4600F025FB05465D
:103F2000F0B1EFB9E4B12878FA2819D12846FEF7A4
:103F300003FCF8B1074600F10C016A6A2046FCF761
:103F40005AFA0EB1F87830703846FD6000F0CCFBBC
:103F500000F00AFC28462146FCF7FAFB002406E0A4
:103F60006FF0030128466FF00304FCF7C1FB204605
:103F700001B0F0BD28462146FCF7DAFB6FF00204E1
:103F8000F5E70000000000002DE9F0411E469046D4
:103F90000C4600F0E9FA054618B316BB0CB32878B6
:103FA000FA281ED105F10C0000F06EFA18B306468F
:103FB0000C306A6A2146FCF71EFAF9203070304650
:103FC0000027B77086F80380C6E9014500F08CFB36
:103FD00000F0CAFB28462146FCF79AFB3846BDE8AC
:103FE000F0816FF0030128466FF00307FCF780FBB8
:103FF0003846BDE8F08128462146FCF795FB6FF076
:104000000200BDE8F0810000B0B540F20C05C2F23C
:104010000045B5F85440FFF7B7FD50B105F15A001F
:104020002146FFF7DDFDE96D51F8200000F064FB4B
:10403000B0BD0020B0BD000070B540F20C060446D3
:10404000C2F20046B6F854502846FFF7D9FDA84200
:1040500009D206F158002946FFF7C2FDF16D41F87B
:104060002040012070BD002070BD00000000000055
:10407000FEF70AFFFEF7B4F800F07EF840F2595060
:1040800045F6C422C0F60000C0F60002002100F090
:10409000BFFE40F2BC01C2F20041086000F088F8A7
:1040A000FEE700000000000010B50446FCF7C4FA6B
:1040B000FEF7D6FA10B9FEF7A3FA38B16FF0050093
:1040C0006FF00504FCF7C0FA204610BD44F6516CB1
:1040D0002046C0F6000C00DF10BD0000000000000C
:1040E00010B50446FCF7B8FAFEF7BAFA10B9FEF7B5
:1040F00087FA38B16FF005006FF00504FCF7A4FAF9
:10410000204610BD44F6796C2046C0F6000C00DF56
:1041100010BD00000000000070B514460D460646B4
:10412000FCF7AAFAFEF7A4FA28B9FEF775FA10B957
:10413000FEF7B6FA30B130462946224600F0C0FEFE
:10414000002070BD44F6C16C3046C0F6000C294614
:10415000224600DF70BD000080B5FEF789FA10B975
:10416000FEF75AFA10B100F0D3FE80BD44F6117C80
:10417000C0F6000C00DF80BD10B500F0B5F8FCF70C
:1041800087FAFEF775FA10B9FEF746FA38B16FF004
:1041900005006FF00504FCF76BFA204610BD44F6ED
:1041A000297CC0F6000C00DF10BD000000000000FC
:1041B00010B5FCF775FAFEF75BFA10B9FEF72CFAAA
:1041C00038B16FF005006FF00504FCF751FA204696
:1041D00010BD45F2910CC0F6000C00DF10BD0000D0
:1041E000F0B581B01C4615460E460746FCF784FA2A
:1041F000FEF746FA10B9FEF71BFA38B138463146D9
:104200002A462346FFF784FE01B0F0BD45F2111C9B
:104210003846C0F6000C31462A46234600DF01B07E
:10422000F0BD00000000000070B514460D460646C3
:10423000FCF776FAFEF724FA10B9FEF7F9F938B16F
:1042400000206FF005010024FCF752FA204670BDF3
:1042500045F2492C3046C0F6000C2946224600DFC4
:1042600070BD000000000000F0B581B01C4615468E
:104270000E460746FCF760FAFEF702FA10B9FEF7A1
:10428000D7F938B1384631462A462346FFF77CFE37
:1042900001B0F0BD45F2E13C3846C0F6000C3146B5
:1042A0002A46234600DF01B0F0BD000000000000F8
:1042B000FEE7000000000000704700000000000062
:1042C000FEE700000000000040F20C00C2F20040D7
:1042D000007A70470000000040F20C00C2F200407B
:1042E000007A7047000000007047000000000000E6
:1042F0002DE9F04381B0044690460E460027002881
:1043000018BF002E09D12046314642463B46FCF7F5
:10431000CFF9384601B0BDE8F083B8F1030FF2D809
:1043200006F10F00082120F007052046FEF7F8F9F6
:10433000074600BFD7E90001C21B21F00301511A53
:10434000A94205D2016807460029F3D10027DAE720
:104350002046FEF7E9F9D0E9002101EB0509C0F894
:104360000490A2F108012046FEF7DAF941684945B8
:1043700038BFC0F80490786860B120F00301384677
:10438000FEF7CEF9396801603860074645EA080152
:10439000416002E045EA0800786008213846FEF7EF
:1043A000BFF90746AFE700002DE9F0410446884613
:1043B0000026002818BFB8F1000F07D1204641465B
:1043C0003246FCF785F93046BDE8F08100214046D1
:1043D0000027FEF7A5F9A0F1080508212046FEF701
:1043E0009FF90646A84204D03746366886B1AE42E9
:1043F000FAD1706820F003052046FEF795F9416870
:10440000A1EB050141602FB1306801263860D5E786
:104410000026D3E7002070600126CFE700000000EF
:10442000F0B581B004460D4608B1600708D00022FF
:10443000204629460026FCF74FF9304601B0F0BD72
:10444000182DF4D315F00700F1D12046FEF76CF9D2
:1044500005601027476008212046FEF761F90646EF
:10446000A5F108012046FEF75BF9306000210160EC
:104470000122306847602046716029460126FCF71A
:104480002BF9DAE700000000B0B558B1054614304A
:10449000FFF7DAFB044610B1281DFFF7C5FB2846DD
:1044A000214602E0002000210024FCF705F9204607
:1044B000B0BD00000000000070B504460D4680B19C
:1044C000E068A8420DD82069A8420AD904F1140076
:1044D0002946FFF7C9FB201DFFF76AFB00220026D3
:1044E00003E06FF003026FF0030620462946FCF755
:1044F000E7F8304670BD0000F0B581B00E460021EF
:10450000002818BF002E21D01446002A1CBF1D46CB
:10451000002B1BD004FB0651066000272246C0E991
:104520000174C0E9035131462B464561FCF7CCF8D4
:10453000012E08D0704200BF01302919421C2960A9
:104540000D46F9D100E029460F600121084601B06F
:10455000F0BD0000000000007047000000000000F7
:1045600070470000000000007047000000000000DD
:1045700070470000000000002DE9F04104468078FB
:1045800000283ED0E56821462846FEF719F905F1D6
:104590000C060020207030462146FFF78DFFA868EA
:1045A000002867D03046FFF76FFF002808BFBDE83E
:1045B000F0810446284600F097F800F069FA0021DF
:1045C000002206464FF0000800F05EFB304600F087
:1045D000D3FA8768064604F10C006A6A3946FBF78D
:1045E0000AFFF9202070F068E0702846214684F820
:1045F0000280FEF7B9F828463946FCF78DF8BDE889
:10460000F081A5686168A86868B3407883282AD1DA
:104610002846FCF781F8284600F066F800F038FAE2
:104620000021002206464FF0000800F02DFB304626
:1046300000F0A2FA8668074604F10C016A6A304667
:10464000FBF7D9FEF86808B1E178017028463146D9
:10465000FCF77EF805F10C00214684F80080FFF796
:104660002BFFBDE8F0812846FCF756F82846214686
:10467000FEF77AF8BDE8F0812DE9F041002808BF87
:10468000BDE8F081044600274FF0010801E000BFBB
:1046900034B3E078254664690007F9D5002128463F
:1046A0002F76FCF761F8A8680028F1D0284600F0C2
:1046B0001FF800F0EDF900210022064600F0E4FAB0
:1046C000F06AEE602F61002868614FF0010118BFA9
:1046D00005612846F56285F81880FCF741F8D7E7B0
:1046E000BDE8F081000000007047000000000000FD
:1046F000704700000000000070470000000000004C
:10470000B0B5FFF781FC48B340F20C04C2F200449C
:1047100004E000BFA847FFF777FCF8B10178F13952
:104720000829F8D8DFE801F00A090E09091216096C
:104730000500256FFFF714FFECE7ECE7256E00F0AE
:10474000EBF9E7E7656EFFF7B7FDE3E7A56E00F06D
:1047500023F8DFE7E56EFFF7FFFEDBE7002000F060
:1047600017F9B0BD0000000010B50446FFF764FC67
:1047700040B140F20C00C2F20040417A39B101214F
:10478000817210BD02202146FFF792FD10BDFEF799
:1047900047FA10BD00000000704700000000000054
:1047A000B0B5044690F920500120607040F20C0032
:1047B000C2F200401C3000F0B3F900BF014680682F
:1047C00040B190F92020AA42F8DCC4E902018C60D3
:1047D0000C3003E0A06001F10800E16004602046B5
:1047E000FBF7EEFFB0BD000010B54A1C1DD040F233
:1047F0000C0CC2F2004CDCF82C30002B1A4618BF0F
:1048000001222DD0DC698C4202D94FF0000E29E044
:104810009E461B69002BA1EB04011A4618BF01221A
:1048200020D0DC69A142F3D21CE040F20C0100234D
:10483000C2F2004101F13004214600BF1A460B6864
:10484000002B03F11001F9D14FF0FF31C1610021BC
:104850000161002A426118BF02F11004206010BDFE
:104860004FF0000E0EF11004BEF1000FC16108BF41
:104870000CF12C04002AC0E9043E206008BF10BDE2
:10488000DA6903F11404511AD961206010BD0000E7
:10489000C269511C01690ED021B1CB691A44CA61A9
:1048A00042694A614269016962B940F20C00C2F290
:1048B0000040C162704700291CBF42694A614269D9
:1048C00001691AB1116100214161704740F20C0089
:1048D000C2F2004001637047B0B540F20C05C2F26D
:1048E0000045EC6A002C52D0E0690138E06118BF45
:1048F000B0BD00BF607813384FEA3010082831D8B7
:10490000DFE800F00530090D13191F252B002046A4
:10491000FBF796FE26E02046FBF746FF22E0204606
:1049200000F0EEF8FBF7A0FE1CE0204600F0E8F8EF
:10493000FBF712FF16E0204600F0E2F8FBF718FF45
:1049400010E0204600F0DCF8FBF7CAFE0AE0204643
:1049500000F0D6F8FBF7D8FE04E0204600F0D0F8CF
:10496000FBF7F2FE204600F007F901682046FBF74E
:104970002FFF204600F0B4F8204600F0F1F824693B
:1049800024B1E0690028B5D000206061EC62B0BDC0
:1049900070B50546FFF7A0FC064600F06DF804462A
:1049A0005DB1022E05D195F9200094F920108842BE
:1049B00016DC284600F0D4F870BD022EFCD140F27F
:1049C0000C00C2F20040456A002DF5D095F9200098
:1049D00094F920108842D8BF70BD284600F080F8B6
:1049E0002046FFF7DDFE284600F01AF970BD0000F2
:1049F00010B50446807881074FF00001218013D55F
:104A0000C00608D440F20C00216BC2F20040406F97
:104A1000FFF7CAFC08E040F20C00216BC2F2004034
:104A2000D0F88400FFF748FDA078C00708BF10BD8C
:104A300040F20C01C2F20041D1F8880018B12146C1
:104A4000FFF73AFD10BDD1F880002146FFF7ACFC1E
:104A500010BD00000000000040F20C00C2F2004057
:104A6000406970470000000040F20C00C2F20040B4
:104A7000406970470000000040F20C00C2F20040A4
:104A8000406970470000000070470000000000000F
:104A9000B0B58468A568856015B100F041F8E8609C
:104AA0000020E0602046B0BDB0B591F920500C4622
:104AB00000F036F80146806848B190F92020AA42FB
:104AC000F8DAC4E902010C308C600460B0BDA0606B
:104AD00001F10800E1600460B0BD000000000000CA
:104AE000C168002908BF704782688A608168002910
:104AF0001CBFC268CA600021C1607047000000008E
:104B00000178F12918BF7047C0680178F129FBD0FE
:104B10007047000000000000704700000000000027
:104B20007047000000000000B0B50446407833280C
:104B300015D194F82320616A2046FEF7B1F90028C8
:104B400008BFB0BD054600222046294600F09CF86B
:104B500094F82310606A2A462346FBF721FEB0BD75
:104B600080B501460120487040F20C00C2F20040BE
:104B70001C30FFF799FF80BD10B590F82210846BB0
:104B80000846FEF755F8204410BD00000000000064
:104B900040F20C000021C2F2004041617047000069
:104BA00080B5FFF769FF78B10146006B8A6B8242DE
:104BB00007D942F6A5620068CEF25A22904208BF99
:104BC00080BD0120FFF774FB80BD000000000000E5
:104BD00070B545F6CC1444F2C120C0F60004C0F60E
:104BE00000000021A26D666E00F0C2FCFFF74CFFD2
:104BF00040F20C05C2F20045A86276B144F641507D
:104C0000E26DC0F60000002100F0B2FCFFF73CFFAF
:104C10000028A86418BF012070BD012070BD0000ED
:104C200010B504460220607040F20C00C2F2004051
:104C30008461FFF7B5FF2046FBF7C6FD10BD0000FD
:104C4000F0B581B00C460546FFF746FB02284FF051
:104C5000000017D140F20C07C2F20047796A89B10F
:104C6000FFF70AFF21460646FBF786FD3046214640
:104C70007570FFF7B9FD07F11C00FFF709FFFFF79B
:104C8000CFFF012001B0F0BD70B515460E460446B9
:104C9000FBF79EFD2046FFF76FFF06602046FFF7FB
:104CA000F7FD204615B1FFF773FE70BDFFF758FF03
:104CB00070BD00000000000070B5FDF7B1FD40F2CE
:104CC0000C05C2F20045286DE96801F10101E960B7
:104CD00000B18047FFF700FE0020FFF759FE286C67
:104CE00068B1A969AE6B8E4202D0C5E90E1070BDE5
:104CF000E86B00281CBF0138E863E86B00B170BDA9
:104D0000FFF7E2FA0228FAD16C6A002CF7D094F887
:104D1000200096F82010884218BF70BD2046FFF78B
:104D2000DFFEA86BFFF71CFFA86BFBF749FD2046D1
:104D3000FFF776FFAC63286CE86370BD00000000ED
:104D400082B045F6CC100821C0F60000D0E918204A
:104D5000FFF76AFAFFF70CFC40F20C0544F6995194
:104D6000C2F200456C46C0F60001C5E9130100BF60
:104D7000E86C00224FF0FF332146FFF731FA00289C
:104D8000F6D1DDE90001FBF727FDDDE900108847DA
:104D9000EEE700000000000070B540F20C05C2F222
:104DA00000456C6C002C08BF70BD206901260138DD
:104DB000206102E066706C6CC4B12069B0B9204615
:104DC000FEF7C6F8E86C04F1180100220023FFF793
:104DD0004BFA18B103202146FFF76AFAE078012860
:104DE000E8D161692046FEF77BF8E4E770BD00007A
:104DF000FBF7D2FC45F2F94CC0F6000C00DF0020B6
:104E00004FF0FF31FBF7C4FCFEE70000000000009C
:104E100070B514460D460646FBF7CEFCFDF738FC90
:104E200010B9FDF711FC38B100206FF00501002426
:104E3000FBF7AEFC204670BD45F2715C3046C0F613
:104E4000000C2946224600DF70BD00000000000073
:104E500010B570B1044613202146FFF7F1FE20B1D2
:104E60002046FBF7F5FB002010BDFFF7F5FDFBF733
:104E7000E7FB002010BD000010B540F20C01C2F2AB
:104E80000041C968441A002C09DD13202146FFF7B0
:104E9000D7FE60B12046FBF7E3FB002010BD6FF0AA
:104EA00003006FF00304FBF7CFFB204610BDFFF7B4
:104EB000D3FDFBF7C5FB002010BD00000000000083
:104EC00070B5054614460E4648B145F213404BF204
:104ED000D131C0F23110C0F2FB21C5E90001002E32
:104EE00018BF002C0AD045F6F8312246C0F6000162
:104EF00030460B2C28BF0B22FBF77DFA28463146A3
:104F00002246FBF7C1FB002070BD0000000000003E
:104F100010B540F20C04C2F20044E068FBF7B0FBAD
:104F2000E06810BD000000002DE9F04140F20C07E0
:104F3000C2F20047387A58B1012800F0A1804FF042
:104F4000FF304FF0FF34FBF793FB2046BDE8F081C4
:104F500007F108009C21FBF767FA45F6CC18C0F66C
:104F60000008D8E90201F965B8F81010D8F82C400B
:104F7000A7F85410D8F8301038642046FFF750FADC
:104F8000002818BFC7F88040D8E905412046D8E975
:104F90000756FFF745FAD7F88010002818BF2146BA
:104FA000284679673146FFF73BFAD7F8801000288A
:104FB00018BF2946B967D8E909512846FFF730FAE2
:104FC000D7F880100028D8F8344018BF2946F96770
:104FD0003CB121682046D4E90223FFF78DFAC7F8D7
:104FE0008440D8F838403CB121682046D4E90223F7
:104FF000FFF782FAC7F88840D8F83C403CB12168F6
:105000002046D4E90223FFF777FAC7F88C40D8F896
:1050100040403CB121682046D4E90223FFF76CFAF6
:10502000C7F89040D8F844403CB121682046D4E904
:105030000223FFF761FAC7F89440D8F848403CB122
:1050400021682046D4E90223FFF756FAC7F89840B2
:10505000D8F84C403CB121682046D4E90223FFF740
:105060004BFAC7F89C40D8F850403CB12168204624
:10507000D4E90223FFF740FAC7F8A04001203872B4
:10508000FBF70AFB0020BDE8F081000000000000F3
:10509000B0B540F20C04C2F20044207A012818D1C5
:1050A000FFF796FD68B1FDF7A3FD45F6CC1540F27C
:1050B0007931C0F60005C0F600016868FDF7D8FB3D
:1050C00070B14FF0FF304FF0FF34FBF7D1FA2046BC
:1050D000B0BD6FF00600FBF7CBFA4FF0FF30B0BD6C
:1050E000FDF7C2FB2061FDF7A3FB04F11C00FFF7F5
:1050F000CFFCFFF795FD2878C0070CBF03200220E6
:1051000080F3148802202072FBF7CEFA0020B0BD95
:105110002DE9F0411F4690460D46FFF725FA04465B
:10512000002818BF002D09D16FF0030120466FF051
:105130000305FBF7DDFA2846BDE8F0812078FA2860
:10514000F2D12046FDF7F8FA00284DD00646204659
:105150003146FDF735FB06F10C01626A2846FBF784
:105160004AF9B8F1000F02D0F07888F80000204624
:105170002946FBF7EDFA04F10C07314638460025C5
:105180003570FFF799F9A068002850D03846FFF72E
:105190007BF900284FF0000549D006462046FFF76E
:1051A000A3FAFFF775FC002101220746FFF76CFD0B
:1051B0003846FFF7E1FCD0F80880074606F10C00FE
:1051C000626A4146FBF717F9F9203070F868F07011
:1051D00020463146B570FDF7C7FA20464146FBF739
:1051E0009BFA2846BDE8F081DFB1204629463A46C1
:1051F000FBF786FA83203946FFF722FDD0B120461F
:10520000FFF772FA0446FFF72FFC01462046FFF72E
:105210004BFCEFF30980C0E902586FF00100BDE8D4
:10522000F08120462946FBF783FA6FF002052846F5
:10523000BDE8F0812046FBF767FA6FF00100BDE89A
:10524000F0810000000000002DE9F04F81B0A0B116
:105250000E4691B1054606F10F0020F00307B5FA9E
:1052600085F0B7FA87F108441F2810D800206FF0A6
:1052700003010024FBF73CFA05E000206FF0030176
:105280000024FBF735FA204601B0BDE8F08F07FB9C
:1052900005F982B194681368D2E90480E4B1A107EA
:1052A00002D1D168332927D800206FF008010024EB
:1052B000FBF71EFAE7E74FF000080024002340F256
:1052C0000C01C2F2004100937CB18A464FF0000B02
:1052D000B8F1000F2CD03AE0D16869B100206FF02E
:1052E00008010024FBF704FACDE7D1F8A00090B143
:1052F0008A46FFF7C9F815E0B8F1000F59D04845C4
:1053000002D318F00300DAD000206FF00901002466
:10531000FBF7EEF9B7E78A46D1F880003421012285
:10532000FEF7E6FF04464FF0010BB8F1000F0ED177
:105330006CB1DAF87C0000224946FEF7D9FF8046BE
:1053400050B340464946FBF76FF80BF1020BECB146
:10535000FA20207084F802B0009860600020A060FD
:105360002946C4E90960C4E90B0004F10C003A467F
:105370004346FFF7C1F844F279506168C0F6000077
:10538000CAF870002046FBF7AFF97CE700206FF009
:105390000401FBF7ADF976E7BBF1000F11D0DAF8A5
:1053A000A000514690B18A462146FFF785F80024B7
:1053B000CBE740B100206FF009010024FBF798F91A
:1053C00061E70024C1E74FF0000878E78A46D1F88A
:1053D00080002146FEF7E8FF0024B6E70000000049
:1053E0002DE9F0411F4690460C46FFF7BDF80646F2
:1053F000002818BF002C09D16FF0030130466FF070
:105400000307FBF775F93846BDE8F0813078FA28D4
:10541000F2D1B06830B34078832823D1304621469A
:10542000FBF77AF93046FFF75FF9FFF731FB002110
:1054300001220546FFF728FC2846FFF79DFB8568FB
:105440000746726A28462146FAF7D5FFF8682946CA
:10545000002818BF80F800803046FBF779F900205B
:10546000BDE8F08106F10C00FFF70EF8B0B105467B
:105470000C30726A2146FAF7BEFFF92028703046D8
:1054800029460027AF7085F80380FDF76DF9304697
:105490002146FBF741F93846BDE8F081DFB13046DF
:1054A00021463A46FBF74CF993203946FFF7C8FBF3
:1054B000C8B13046FFF718F90546FFF7D5FA01469F
:1054C0002846FFF7F1FAEFF30980C0E902486FF0D0
:1054D0000100BDE8F08130462146FBF725F96FF069
:1054E0000200BDE8F0813046FBF72EF96FF00100B5
:1054F000BDE8F08100000000B0B5FEF7EDFE022827
:1055000035D140F20C05C2F20045686A002808BF98
:10551000B0BDFFF7B1FA0446C06AFFF7ADF8A06965
:1055200030B100210022FFF7AFFBA069FBF740F983
:10553000EFF30980A06305F11C00FFF7A9FAFFF75C
:105540006FFBFFF725FBE078C00703D12046FFF78C
:105550004FFA09E004206070686B0021E1600028C8
:10556000A06018BFC4606C632046FBF70DF9B0BDA6
:105570002DE9F04F81B0A8B106468946CAB19468BA
:10558000D2E9001B1569D2E9057A54B3A00702D10C
:10559000D06843282ED800206FF008010024FBF7C4
:1055A000F7F8F8E000206FF003010024FBF7F0F8B3
:1055B000F1E04FF0180A00244FF0000B00250027FF
:1055C000002127B1482F28D317F0070025D140F23A
:1055D0000C02C2F20042009134B34FF00008D5B380
:1055E00076E0D06830B100206FF008010024FBF7AE
:1055F000CFF8D0E01DB1EFB115F007001AD1BAF124
:10560000000F58D0AAF101003828DAD300206FF03B
:105610000B010024FBF7BCF8BDE000206FF00A018D
:105620000024FBF7B5F8B6E0D2F8880048B1FEF7E1
:105630002BFF0CE000206FF00A010024FBF7A8F814
:10564000A9E0D2F8800044210122FEF751FE044671
:105650004FF00108E5BBDCB35FB140F20C00C2F2D1
:105660000040406F00223946FEF742FE05466DBB02
:1056700013E040F20C0245F6CC11C2F20042C0F633
:105680000001D2F884004F6DC0B1FEF7FDFE054663
:10569000002818BF08F11008C5B95FEAC87014D017
:1056A00040F20C01C2F20041D1F8880040B121461D
:1056B000FEF702FF09E04FF0180A82E7506FD1E7CA
:1056C000D1F880002146FEF76FFE002448F0020862
:1056D000002C64D040F2F110208084F80280DDF8C4
:1056E000008084F803B00020C4F80480FD21C4E9E0
:1056F0000200C4E90400C4E9060084F8221045F65B
:10570000CC11C0F60001C4F82300C4F82700C4F887
:105710002B0084F82F00E81984F820A0403884F882
:1057200021A0C4E90C57A063087842F6A561E6639E
:105730004007CEF25A2129600BD527F003004428F8
:1057400007D0A7F14401281D21F00301CC22FAF76C
:1057500064FEA56B34212846FAF766FE40F20C0180
:1057600044F6F150C2F20041C0F60000C5E90D0652
:105770004FF08070E863C5F8209044F62930C0F6F9
:1057800000000866E16B20464246FAF7F9FF14B1C3
:105790002046FFF7FDF8204601B0BDE8F08F00205D
:1057A0006FF00401FAF7F4FF002CF1D1F3E70000E9
:1057B0000FB4054B10B503A9044A029800F018F87D
:1057C00010BC5DF814FB0000593E000800000024E6
:1057D00002E008C8121F08C1002AFAD170477047BA
:1057E000002001E001C1121F002AFBD17047000018
:1057F0002DE9FF4F8BB09A460F460546002606E07E
:1058000025280BD052460D9990476D1C761C2878A0
:105810000028F5D10FB03046BDE8F08F0024A04637
:105820000122604900E0044315F8013F203B02FAE1
:1058300003F00842F7D128782E2817D115F8010F68
:1058400044F004042A280ED06FF02F022878A0F12B
:10585000300109290AD808EB880102EB410100EB6D
:1058600001086D1CF2E757F8048B6D1C2878692835
:105870003ED006DC0028CDD063280BD0642804D1AC
:1058800036E0732810D075284BD052460D999047BA
:10589000761C85E017F8040B8DF8000000208DF8C9
:1058A0000100E946012003E057F8049B4FF0FF3068
:1058B00061074FF0000401D40AE0641C44450DDA8E
:1058C0008442FADB19F804100029F6D106E0641CC2
:1058D0008442FCDB19F804100029F8D1264404E0C6
:1058E00019F8010B52460D999047641EF8D257E003
:1058F00001CF4FF00A0B002802DA40422D2102E0CE
:10590000210504D52B218DF82410012103E0E107A6
:1059100005D02021F7E70DF1200908910CE00021C6
:10592000F9E701CF4FF00A0BF9E75946FAF787FD7F
:1059300001F1300209F8012D0028F6D1ADEB090084
:1059400000F1200B600701D44FF00108D84502DDBB
:10595000A8EB0B0000E000208046002406E009A828
:105960005246005D0D999047641C761C089884424D
:10597000F5DB04E0302052460D999047761CB8F1D3
:105980000001A8F10108F5DC05E019F8010B524609
:105990000D999047761CBBF10001ABF1010BF4DCD3
:1059A0006D1C34E70928010010B5044601E0FEF73C
:1059B00053FA14F8010B04490028F8D1BDE810404F
:1059C0000A20FEF749BA000000000024030000008E
:1059D000E803000005000000F01A00241000000099
:1059E00000000000000000000000000000000000B7
:1059F0000000000000000000301B002400800000B8
:105A00000000000000000000000000000000000096
:105A10000000000000000000000000000000000086
:105A2000000C0000285B0008645B00084C5B000869
:105A300004000000B49B00243C9C002400000000F3
:105A40000000000000000000000000000000000056
:105A50000000000000000000000000000000000046
:105A600000000000309B0024649B00240000000024
:105A7000010203040102030406070809A35B0008EE
:105A80000000000000000000000000000000000016
:105A9000000200002A0000000000000000000000DA
:105AA000B25B0008000000000000000000000000E1
:105AB00000000000000400002B00000000000000B7
:105AC00000000000C45B00080000000000000000AF
:105AD0000000000000000000000800002C00000092
